{
  "_format": "hh-sol-artifact-1",
  "contractName": "Caveat",
  "sourceName": "contracts/Caveat.sol",
  "abi": [
    {
      "inputs": [
        {
          "internalType": "string",
          "name": "baseURI_",
          "type": "string"
        },
        {
          "internalType": "address",
          "name": "_layerZeroEndpoint",
          "type": "address"
        }
      ],
      "stateMutability": "nonpayable",
      "type": "constructor"
    },
    {
      "anonymous": false,
      "inputs": [
        {
          "indexed": true,
          "internalType": "address",
          "name": "owner",
          "type": "address"
        },
        {
          "indexed": true,
          "internalType": "address",
          "name": "approved",
          "type": "address"
        },
        {
          "indexed": true,
          "internalType": "uint256",
          "name": "tokenId",
          "type": "uint256"
        }
      ],
      "name": "Approval",
      "type": "event"
    },
    {
      "anonymous": false,
      "inputs": [
        {
          "indexed": true,
          "internalType": "address",
          "name": "owner",
          "type": "address"
        },
        {
          "indexed": true,
          "internalType": "address",
          "name": "operator",
          "type": "address"
        },
        {
          "indexed": false,
          "internalType": "bool",
          "name": "approved",
          "type": "bool"
        }
      ],
      "name": "ApprovalForAll",
      "type": "event"
    },
    {
      "anonymous": false,
      "inputs": [
        {
          "indexed": false,
          "internalType": "uint16",
          "name": "_srcChainId",
          "type": "uint16"
        },
        {
          "indexed": false,
          "internalType": "bytes",
          "name": "_srcAddress",
          "type": "bytes"
        },
        {
          "indexed": false,
          "internalType": "uint64",
          "name": "_nonce",
          "type": "uint64"
        },
        {
          "indexed": false,
          "internalType": "bytes",
          "name": "_payload",
          "type": "bytes"
        }
      ],
      "name": "MessageFailed",
      "type": "event"
    },
    {
      "anonymous": false,
      "inputs": [
        {
          "indexed": true,
          "internalType": "address",
          "name": "previousOwner",
          "type": "address"
        },
        {
          "indexed": true,
          "internalType": "address",
          "name": "newOwner",
          "type": "address"
        }
      ],
      "name": "OwnershipTransferred",
      "type": "event"
    },
    {
      "anonymous": false,
      "inputs": [
        {
          "indexed": true,
          "internalType": "address",
          "name": "from",
          "type": "address"
        },
        {
          "indexed": true,
          "internalType": "address",
          "name": "to",
          "type": "address"
        },
        {
          "indexed": true,
          "internalType": "uint256",
          "name": "tokenId",
          "type": "uint256"
        }
      ],
      "name": "Transfer",
      "type": "event"
    },
    {
      "inputs": [],
      "name": "MAX_MINT_ETHEREUM",
      "outputs": [
        {
          "internalType": "uint256",
          "name": "",
          "type": "uint256"
        }
      ],
      "stateMutability": "view",
      "type": "function"
    },
    {
      "inputs": [],
      "name": "_owner",
      "outputs": [
        {
          "internalType": "address",
          "name": "",
          "type": "address"
        }
      ],
      "stateMutability": "view",
      "type": "function"
    },
    {
      "inputs": [
        {
          "internalType": "address",
          "name": "to",
          "type": "address"
        },
        {
          "internalType": "uint256",
          "name": "tokenId",
          "type": "uint256"
        }
      ],
      "name": "approve",
      "outputs": [],
      "stateMutability": "nonpayable",
      "type": "function"
    },
    {
      "inputs": [
        {
          "internalType": "address",
          "name": "owner",
          "type": "address"
        }
      ],
      "name": "balanceOf",
      "outputs": [
        {
          "internalType": "uint256",
          "name": "",
          "type": "uint256"
        }
      ],
      "stateMutability": "view",
      "type": "function"
    },
    {
      "inputs": [],
      "name": "donate",
      "outputs": [],
      "stateMutability": "payable",
      "type": "function"
    },
    {
      "inputs": [
        {
          "internalType": "uint16",
          "name": "",
          "type": "uint16"
        },
        {
          "internalType": "bytes",
          "name": "",
          "type": "bytes"
        },
        {
          "internalType": "uint256",
          "name": "",
          "type": "uint256"
        }
      ],
      "name": "failedMessages",
      "outputs": [
        {
          "internalType": "uint256",
          "name": "payloadLength",
          "type": "uint256"
        },
        {
          "internalType": "bytes32",
          "name": "payloadHash",
          "type": "bytes32"
        }
      ],
      "stateMutability": "view",
      "type": "function"
    },
    {
      "inputs": [
        {
          "internalType": "uint256",
          "name": "tokenId",
          "type": "uint256"
        }
      ],
      "name": "getApproved",
      "outputs": [
        {
          "internalType": "address",
          "name": "",
          "type": "address"
        }
      ],
      "stateMutability": "view",
      "type": "function"
    },
    {
      "inputs": [
        {
          "internalType": "address",
          "name": "owner",
          "type": "address"
        },
        {
          "internalType": "address",
          "name": "operator",
          "type": "address"
        }
      ],
      "name": "isApprovedForAll",
      "outputs": [
        {
          "internalType": "bool",
          "name": "",
          "type": "bool"
        }
      ],
      "stateMutability": "view",
      "type": "function"
    },
    {
      "inputs": [
        {
          "internalType": "uint16",
          "name": "_srcChainId",
          "type": "uint16"
        },
        {
          "internalType": "bytes",
          "name": "_srcAddress",
          "type": "bytes"
        },
        {
          "internalType": "uint64",
          "name": "_nonce",
          "type": "uint64"
        },
        {
          "internalType": "bytes",
          "name": "_payload",
          "type": "bytes"
        }
      ],
      "name": "lzReceive",
      "outputs": [],
      "stateMutability": "nonpayable",
      "type": "function"
    },
    {
      "inputs": [
        {
          "internalType": "uint8",
          "name": "numTokens",
          "type": "uint8"
        }
      ],
      "name": "mint",
      "outputs": [],
      "stateMutability": "payable",
      "type": "function"
    },
    {
      "inputs": [],
      "name": "name",
      "outputs": [
        {
          "internalType": "string",
          "name": "",
          "type": "string"
        }
      ],
      "stateMutability": "view",
      "type": "function"
    },
    {
      "inputs": [],
      "name": "nextTokenId",
      "outputs": [
        {
          "internalType": "uint256",
          "name": "",
          "type": "uint256"
        }
      ],
      "stateMutability": "view",
      "type": "function"
    },
    {
      "inputs": [
        {
          "internalType": "uint16",
          "name": "_srcChainId",
          "type": "uint16"
        },
        {
          "internalType": "bytes",
          "name": "_srcAddress",
          "type": "bytes"
        },
        {
          "internalType": "uint64",
          "name": "_nonce",
          "type": "uint64"
        },
        {
          "internalType": "bytes",
          "name": "_payload",
          "type": "bytes"
        }
      ],
      "name": "onLzReceive",
      "outputs": [],
      "stateMutability": "nonpayable",
      "type": "function"
    },
    {
      "inputs": [],
      "name": "owner",
      "outputs": [
        {
          "internalType": "address",
          "name": "",
          "type": "address"
        }
      ],
      "stateMutability": "view",
      "type": "function"
    },
    {
      "inputs": [
        {
          "internalType": "uint256",
          "name": "tokenId",
          "type": "uint256"
        }
      ],
      "name": "ownerOf",
      "outputs": [
        {
          "internalType": "address",
          "name": "",
          "type": "address"
        }
      ],
      "stateMutability": "view",
      "type": "function"
    },
    {
      "inputs": [],
      "name": "renounceOwnership",
      "outputs": [],
      "stateMutability": "nonpayable",
      "type": "function"
    },
    {
      "inputs": [
        {
          "internalType": "uint16",
          "name": "_srcChainId",
          "type": "uint16"
        },
        {
          "internalType": "bytes",
          "name": "_srcAddress",
          "type": "bytes"
        },
        {
          "internalType": "uint64",
          "name": "_nonce",
          "type": "uint64"
        },
        {
          "internalType": "bytes",
          "name": "_payload",
          "type": "bytes"
        }
      ],
      "name": "retryMessage",
      "outputs": [],
      "stateMutability": "payable",
      "type": "function"
    },
    {
      "inputs": [
        {
          "internalType": "address",
          "name": "from",
          "type": "address"
        },
        {
          "internalType": "address",
          "name": "to",
          "type": "address"
        },
        {
          "internalType": "uint256",
          "name": "tokenId",
          "type": "uint256"
        }
      ],
      "name": "safeTransferFrom",
      "outputs": [],
      "stateMutability": "nonpayable",
      "type": "function"
    },
    {
      "inputs": [
        {
          "internalType": "address",
          "name": "from",
          "type": "address"
        },
        {
          "internalType": "address",
          "name": "to",
          "type": "address"
        },
        {
          "internalType": "uint256",
          "name": "tokenId",
          "type": "uint256"
        },
        {
          "internalType": "bytes",
          "name": "_data",
          "type": "bytes"
        }
      ],
      "name": "safeTransferFrom",
      "outputs": [],
      "stateMutability": "nonpayable",
      "type": "function"
    },
    {
      "inputs": [
        {
          "internalType": "address",
          "name": "operator",
          "type": "address"
        },
        {
          "internalType": "bool",
          "name": "approved",
          "type": "bool"
        }
      ],
      "name": "setApprovalForAll",
      "outputs": [],
      "stateMutability": "nonpayable",
      "type": "function"
    },
    {
      "inputs": [
        {
          "internalType": "string",
          "name": "URI",
          "type": "string"
        }
      ],
      "name": "setBaseURI",
      "outputs": [],
      "stateMutability": "nonpayable",
      "type": "function"
    },
    {
      "inputs": [
        {
          "internalType": "uint256",
          "name": "newVal",
          "type": "uint256"
        }
      ],
      "name": "setGasForDestinationLzReceive",
      "outputs": [],
      "stateMutability": "nonpayable",
      "type": "function"
    },
    {
      "inputs": [
        {
          "internalType": "uint16",
          "name": "_chainId",
          "type": "uint16"
        },
        {
          "internalType": "bytes",
          "name": "_trustedRemote",
          "type": "bytes"
        }
      ],
      "name": "setTrustedRemote",
      "outputs": [],
      "stateMutability": "nonpayable",
      "type": "function"
    },
    {
      "inputs": [
        {
          "internalType": "bytes4",
          "name": "interfaceId",
          "type": "bytes4"
        }
      ],
      "name": "supportsInterface",
      "outputs": [
        {
          "internalType": "bool",
          "name": "",
          "type": "bool"
        }
      ],
      "stateMutability": "view",
      "type": "function"
    },
    {
      "inputs": [],
      "name": "symbol",
      "outputs": [
        {
          "internalType": "string",
          "name": "",
          "type": "string"
        }
      ],
      "stateMutability": "view",
      "type": "function"
    },
    {
      "inputs": [
        {
          "internalType": "uint256",
          "name": "tokenId",
          "type": "uint256"
        }
      ],
      "name": "tokenURI",
      "outputs": [
        {
          "internalType": "string",
          "name": "",
          "type": "string"
        }
      ],
      "stateMutability": "view",
      "type": "function"
    },
    {
      "inputs": [
        {
          "internalType": "address",
          "name": "from",
          "type": "address"
        },
        {
          "internalType": "address",
          "name": "to",
          "type": "address"
        },
        {
          "internalType": "uint256",
          "name": "tokenId",
          "type": "uint256"
        }
      ],
      "name": "transferFrom",
      "outputs": [],
      "stateMutability": "nonpayable",
      "type": "function"
    },
    {
      "inputs": [
        {
          "internalType": "address",
          "name": "newOwner",
          "type": "address"
        }
      ],
      "name": "transferOwnership",
      "outputs": [],
      "stateMutability": "nonpayable",
      "type": "function"
    },
    {
      "inputs": [
        {
          "internalType": "uint16",
          "name": "_chainId",
          "type": "uint16"
        },
        {
          "internalType": "uint256",
          "name": "tokenId",
          "type": "uint256"
        }
      ],
      "name": "traverseChains",
      "outputs": [],
      "stateMutability": "payable",
      "type": "function"
    },
    {
      "inputs": [
        {
          "internalType": "uint16",
          "name": "",
          "type": "uint16"
        }
      ],
      "name": "trustedRemoteLookup",
      "outputs": [
        {
          "internalType": "bytes",
          "name": "",
          "type": "bytes"
        }
      ],
      "stateMutability": "view",
      "type": "function"
    },
    {
      "inputs": [
        {
          "internalType": "uint256",
          "name": "amt",
          "type": "uint256"
        }
      ],
      "name": "withdraw",
      "outputs": [],
      "stateMutability": "nonpayable",
      "type": "function"
    }
  ],
  "bytecode": "0x60806040526000600c55612710600d5562055730600e553480156200002357600080fd5b5060405162005334380380620053348339818101604052810190620000499190620003bd565b6040518060400160405280600681526020017f43617665617400000000000000000000000000000000000000000000000000008152506040518060400160405280600681526020017f4361766561740000000000000000000000000000000000000000000000000000815250620000d5620000c9620001ac60201b60201c565b620001b460201b60201c565b8160019080519060200190620000ed92919062000278565b5080600290805190602001906200010692919062000278565b50505033600a60006101000a81548173ffffffffffffffffffffffffffffffffffffffff021916908373ffffffffffffffffffffffffffffffffffffffff16021790555080600760006101000a81548173ffffffffffffffffffffffffffffffffffffffff021916908373ffffffffffffffffffffffffffffffffffffffff16021790555081600b9080519060200190620001a392919062000278565b505050620005f5565b600033905090565b60008060009054906101000a900473ffffffffffffffffffffffffffffffffffffffff169050816000806101000a81548173ffffffffffffffffffffffffffffffffffffffff021916908373ffffffffffffffffffffffffffffffffffffffff1602179055508173ffffffffffffffffffffffffffffffffffffffff168173ffffffffffffffffffffffffffffffffffffffff167f8be0079c531659141344cd1fd0a4f28419497f9722a3daafe3b4186f6b6457e060405160405180910390a35050565b8280546200028690620004ec565b90600052602060002090601f016020900481019282620002aa5760008555620002f6565b82601f10620002c557805160ff1916838001178555620002f6565b82800160010185558215620002f6579182015b82811115620002f5578251825591602001919060010190620002d8565b5b50905062000305919062000309565b5090565b5b80821115620003245760008160009055506001016200030a565b5090565b60006200033f62000339846200044c565b62000423565b9050828152602081018484840111156200035e576200035d620005bb565b5b6200036b848285620004b6565b509392505050565b6000815190506200038481620005db565b92915050565b600082601f830112620003a257620003a1620005b6565b5b8151620003b484826020860162000328565b91505092915050565b60008060408385031215620003d757620003d6620005c5565b5b600083015167ffffffffffffffff811115620003f857620003f7620005c0565b5b62000406858286016200038a565b9250506020620004198582860162000373565b9150509250929050565b60006200042f62000442565b90506200043d828262000522565b919050565b6000604051905090565b600067ffffffffffffffff8211156200046a576200046962000587565b5b6200047582620005ca565b9050602081019050919050565b60006200048f8262000496565b9050919050565b600073ffffffffffffffffffffffffffffffffffffffff82169050919050565b60005b83811015620004d6578082015181840152602081019050620004b9565b83811115620004e6576000848401525b50505050565b600060028204905060018216806200050557607f821691505b602082108114156200051c576200051b62000558565b5b50919050565b6200052d82620005ca565b810181811067ffffffffffffffff821117156200054f576200054e62000587565b5b80604052505050565b7f4e487b7100000000000000000000000000000000000000000000000000000000600052602260045260246000fd5b7f4e487b7100000000000000000000000000000000000000000000000000000000600052604160045260246000fd5b600080fd5b600080fd5b600080fd5b600080fd5b6000601f19601f8301169050919050565b620005e68162000482565b8114620005f257600080fd5b50565b614d2f80620006056000396000f3fe6080604052600436106101d75760003560e01c80637533d78811610102578063b88d4fde11610095578063e985e9c511610064578063e985e9c51461068f578063eb8d72b7146106cc578063ed88c68e146106f5578063f2fde38b146106ff576101d7565b8063b88d4fde146105f1578063c87b56dd1461061a578063cf89fa0314610657578063d1deba1f14610673576101d7565b8063943fb872116100d1578063943fb8721461054957806395d89b4114610572578063a22cb4651461059d578063b2bdfa7b146105c6576101d7565b80637533d7881461047857806375794a3c146104b55780638da5cb5b146104e05780638ee749121461050b576101d7565b80632e1a7d4d1161017a5780636352211e116101495780636352211e146103cb5780636ecd23061461040857806370a0823114610424578063715018a614610461576101d7565b80632e1a7d4d1461032557806342842e0e1461034e5780634d56b4e31461037757806355f804b3146103a2576101d7565b8063081812fc116101b6578063081812fc1461026d578063095ea7b3146102aa5780631c37a822146102d357806323b872dd146102fc576101d7565b80621d3567146101dc57806301ffc9a71461020557806306fdde0314610242575b600080fd5b3480156101e857600080fd5b5061020360048036038101906101fe919061323e565b610728565b005b34801561021157600080fd5b5061022c60048036038101906102279190612ffb565b61096a565b6040516102399190613b3d565b60405180910390f35b34801561024e57600080fd5b50610257610a4c565b6040516102649190613b7a565b60405180910390f35b34801561027957600080fd5b50610294600480360381019061028f919061331d565b610ade565b6040516102a19190613aad565b60405180910390f35b3480156102b657600080fd5b506102d160048036038101906102cc9190612fbb565b610b63565b005b3480156102df57600080fd5b506102fa60048036038101906102f5919061323e565b610c7b565b005b34801561030857600080fd5b50610323600480360381019061031e9190612ea5565b610cfb565b005b34801561033157600080fd5b5061034c6004803603810190610347919061331d565b610d5b565b005b34801561035a57600080fd5b5061037560048036038101906103709190612ea5565b610ea9565b005b34801561038357600080fd5b5061038c610ec9565b604051610399919061403b565b60405180910390f35b3480156103ae57600080fd5b506103c960048036038101906103c49190613055565b610ecf565b005b3480156103d757600080fd5b506103f260048036038101906103ed919061331d565b610f65565b6040516103ff9190613aad565b60405180910390f35b610422600480360381019061041d919061338a565b611017565b005b34801561043057600080fd5b5061044b60048036038101906104469190612df8565b6110fe565b604051610458919061403b565b60405180910390f35b34801561046d57600080fd5b506104766111b6565b005b34801561048457600080fd5b5061049f600480360381019061049a919061309e565b61123e565b6040516104ac9190613b58565b60405180910390f35b3480156104c157600080fd5b506104ca6112de565b6040516104d7919061403b565b60405180910390f35b3480156104ec57600080fd5b506104f56112e4565b6040516105029190613aad565b60405180910390f35b34801561051757600080fd5b50610532600480360381019061052d919061312b565b61130d565b604051610540929190614056565b60405180910390f35b34801561055557600080fd5b50610570600480360381019061056b919061331d565b611361565b005b34801561057e57600080fd5b506105876113e7565b6040516105949190613b7a565b60405180910390f35b3480156105a957600080fd5b506105c460048036038101906105bf9190612f7b565b611479565b005b3480156105d257600080fd5b506105db61148f565b6040516105e89190613aad565b60405180910390f35b3480156105fd57600080fd5b5061061860048036038101906106139190612ef8565b6114b5565b005b34801561062657600080fd5b50610641600480360381019061063c919061331d565b611517565b60405161064e9190613b7a565b60405180910390f35b610671600480360381019061066c91906132dd565b6115be565b005b61068d6004803603810190610688919061319a565b6118b1565b005b34801561069b57600080fd5b506106b660048036038101906106b19190612e65565b611a51565b6040516106c39190613b3d565b60405180910390f35b3480156106d857600080fd5b506106f360048036038101906106ee91906130cb565b611ae5565b005b6106fd611b91565b005b34801561070b57600080fd5b5061072660048036038101906107219190612df8565b611b93565b005b600760009054906101000a900473ffffffffffffffffffffffffffffffffffffffff1673ffffffffffffffffffffffffffffffffffffffff163373ffffffffffffffffffffffffffffffffffffffff161461078257600080fd5b600960008561ffff1661ffff16815260200190815260200160002080546107a890614325565b905083511480156107ee5750600960008561ffff1661ffff1681526020019081526020016000206040516107dc9190613a31565b60405180910390208380519060200120145b61082d576040517f08c379a000000000000000000000000000000000000000000000000000000000815260040161082490613ddc565b60405180910390fd5b3073ffffffffffffffffffffffffffffffffffffffff16631c37a822858585856040518563ffffffff1660e01b815260040161086c9493929190613f72565b600060405180830381600087803b15801561088657600080fd5b505af1925050508015610897575060015b610963576040518060400160405280825181526020018280519060200120815250600860008661ffff1661ffff168152602001908152602001600020846040516108e19190613a1a565b908152602001604051809103902060008467ffffffffffffffff16815260200190815260200160002060008201518160000155602082015181600101559050507fe6f254030bcb01ffd20558175c13fcaed6d1520be7becee4c961b65f79243b0d848484846040516109569493929190613f72565b60405180910390a1610964565b5b50505050565b60007f80ac58cd000000000000000000000000000000000000000000000000000000007bffffffffffffffffffffffffffffffffffffffffffffffffffffffff1916827bffffffffffffffffffffffffffffffffffffffffffffffffffffffff19161480610a3557507f5b5e139f000000000000000000000000000000000000000000000000000000007bffffffffffffffffffffffffffffffffffffffffffffffffffffffff1916827bffffffffffffffffffffffffffffffffffffffffffffffffffffffff1916145b80610a455750610a4482611c8b565b5b9050919050565b606060018054610a5b90614325565b80601f0160208091040260200160405190810160405280929190818152602001828054610a8790614325565b8015610ad45780601f10610aa957610100808354040283529160200191610ad4565b820191906000526020600020905b815481529060010190602001808311610ab757829003601f168201915b5050505050905090565b6000610ae982611cf5565b610b28576040517f08c379a0000000000000000000000000000000000000000000000000000000008152600401610b1f90613d9c565b60405180910390fd5b6005600083815260200190815260200160002060009054906101000a900473ffffffffffffffffffffffffffffffffffffffff169050919050565b6000610b6e82610f65565b90508073ffffffffffffffffffffffffffffffffffffffff168373ffffffffffffffffffffffffffffffffffffffff161415610bdf576040517f08c379a0000000000000000000000000000000000000000000000000000000008152600401610bd690613e3c565b60405180910390fd5b8073ffffffffffffffffffffffffffffffffffffffff16610bfe611d61565b73ffffffffffffffffffffffffffffffffffffffff161480610c2d5750610c2c81610c27611d61565b611a51565b5b610c6c576040517f08c379a0000000000000000000000000000000000000000000000000000000008152600401610c6390613cdc565b60405180910390fd5b610c768383611d69565b505050565b3073ffffffffffffffffffffffffffffffffffffffff163373ffffffffffffffffffffffffffffffffffffffff1614610ce9576040517f08c379a0000000000000000000000000000000000000000000000000000000008152600401610ce090613d3c565b60405180910390fd5b610cf584848484611e22565b50505050565b610d0c610d06611d61565b82611e4f565b610d4b576040517f08c379a0000000000000000000000000000000000000000000000000000000008152600401610d4290613e7c565b60405180910390fd5b610d56838383611f2d565b505050565b610d63611d61565b73ffffffffffffffffffffffffffffffffffffffff16610d816112e4565b73ffffffffffffffffffffffffffffffffffffffff1614610dd7576040517f08c379a0000000000000000000000000000000000000000000000000000000008152600401610dce90613dbc565b60405180910390fd5b6000600a60009054906101000a900473ffffffffffffffffffffffffffffffffffffffff1673ffffffffffffffffffffffffffffffffffffffff1682604051610e1f90613a6c565b60006040518083038185875af1925050503d8060008114610e5c576040519150601f19603f3d011682016040523d82523d6000602084013e610e61565b606091505b5050905080610ea5576040517f08c379a0000000000000000000000000000000000000000000000000000000008152600401610e9c90613b9c565b60405180910390fd5b5050565b610ec4838383604051806020016040528060008152506114b5565b505050565b600d5481565b610ed7611d61565b73ffffffffffffffffffffffffffffffffffffffff16610ef56112e4565b73ffffffffffffffffffffffffffffffffffffffff1614610f4b576040517f08c379a0000000000000000000000000000000000000000000000000000000008152600401610f4290613dbc565b60405180910390fd5b80600b9080519060200190610f61929190612ac7565b5050565b6000806003600084815260200190815260200160002060009054906101000a900473ffffffffffffffffffffffffffffffffffffffff169050600073ffffffffffffffffffffffffffffffffffffffff168173ffffffffffffffffffffffffffffffffffffffff16141561100e576040517f08c379a000000000000000000000000000000000000000000000000000000000815260040161100590613d1c565b60405180910390fd5b80915050919050565b60038160ff161061105d576040517f08c379a000000000000000000000000000000000000000000000000000000000815260040161105490613d5c565b60405180910390fd5b600d548160ff16600c546110719190614169565b11156110b2576040517f08c379a00000000000000000000000000000000000000000000000000000000081526004016110a990613e5c565b60405180910390fd5b6110d033600c600081546110c590614388565b919050819055612189565b60028160ff1614156110fb576110fa33600c600081546110ef90614388565b919050819055612189565b5b50565b60008073ffffffffffffffffffffffffffffffffffffffff168273ffffffffffffffffffffffffffffffffffffffff16141561116f576040517f08c379a000000000000000000000000000000000000000000000000000000000815260040161116690613cfc565b60405180910390fd5b600460008373ffffffffffffffffffffffffffffffffffffffff1673ffffffffffffffffffffffffffffffffffffffff168152602001908152602001600020549050919050565b6111be611d61565b73ffffffffffffffffffffffffffffffffffffffff166111dc6112e4565b73ffffffffffffffffffffffffffffffffffffffff1614611232576040517f08c379a000000000000000000000000000000000000000000000000000000000815260040161122990613dbc565b60405180910390fd5b61123c60006121a7565b565b6009602052806000526040600020600091509050805461125d90614325565b80601f016020809104026020016040519081016040528092919081815260200182805461128990614325565b80156112d65780601f106112ab576101008083540402835291602001916112d6565b820191906000526020600020905b8154815290600101906020018083116112b957829003601f168201915b505050505081565b600c5481565b60008060009054906101000a900473ffffffffffffffffffffffffffffffffffffffff16905090565b60086020528260005260406000208280516020810182018051848252602083016020850120818352809550505050505060205280600052604060002060009250925050508060000154908060010154905082565b611369611d61565b73ffffffffffffffffffffffffffffffffffffffff166113876112e4565b73ffffffffffffffffffffffffffffffffffffffff16146113dd576040517f08c379a00000000000000000000000000000000000000000000000000000000081526004016113d490613dbc565b60405180910390fd5b80600e8190555050565b6060600280546113f690614325565b80601f016020809104026020016040519081016040528092919081815260200182805461142290614325565b801561146f5780601f106114445761010080835404028352916020019161146f565b820191906000526020600020905b81548152906001019060200180831161145257829003601f168201915b5050505050905090565b61148b611484611d61565b838361226b565b5050565b600a60009054906101000a900473ffffffffffffffffffffffffffffffffffffffff1681565b6114c66114c0611d61565b83611e4f565b611505576040517f08c379a00000000000000000000000000000000000000000000000000000000081526004016114fc90613e7c565b60405180910390fd5b611511848484846123d8565b50505050565b606061152282611cf5565b611561576040517f08c379a000000000000000000000000000000000000000000000000000000000815260040161155890613e1c565b60405180910390fd5b600061156b612434565b9050600081511161158b57604051806020016040528060008152506115b6565b80611595846124c6565b6040516020016115a6929190613a48565b6040516020818303038152906040525b915050919050565b6115c781610f65565b73ffffffffffffffffffffffffffffffffffffffff163373ffffffffffffffffffffffffffffffffffffffff1614611634576040517f08c379a000000000000000000000000000000000000000000000000000000000815260040161162b90613c9c565b60405180910390fd5b6000600960008461ffff1661ffff168152602001908152602001600020805461165c90614325565b90501161169e576040517f08c379a000000000000000000000000000000000000000000000000000000000815260040161169590613c3c565b60405180910390fd5b6116a781612627565b600033826040516020016116bc929190613b14565b6040516020818303038152906040529050600060019050600081600e546040516020016116ea929190613a81565b60405160208183030381529060405290506000600760009054906101000a900473ffffffffffffffffffffffffffffffffffffffff1673ffffffffffffffffffffffffffffffffffffffff166340a7bb108730876000876040518663ffffffff1660e01b8152600401611761959493929190613ebc565b604080518083038186803b15801561177857600080fd5b505afa15801561178c573d6000803e3d6000fd5b505050506040513d601f19601f820116820180604052508101906117b0919061334a565b509050803410156117f6576040517f08c379a00000000000000000000000000000000000000000000000000000000081526004016117ed90613c7c565b60405180910390fd5b600760009054906101000a900473ffffffffffffffffffffffffffffffffffffffff1673ffffffffffffffffffffffffffffffffffffffff1663c58031003488600960008b61ffff1661ffff16815260200190815260200160002088336000896040518863ffffffff1660e01b815260040161187796959493929190613fc5565b6000604051808303818588803b15801561189057600080fd5b505af11580156118a4573d6000803e3d6000fd5b5050505050505050505050565b6000600860008761ffff1661ffff168152602001908152602001600020856040516118dc9190613a1a565b908152602001604051809103902060008567ffffffffffffffff16815260200190815260200160002090506000801b81600101541415611951576040517f08c379a000000000000000000000000000000000000000000000000000000000815260040161194890613e9c565b60405180910390fd5b806000015483839050148015611981575080600101548383604051611977929190613a01565b6040518091039020145b6119c0576040517f08c379a00000000000000000000000000000000000000000000000000000000081526004016119b790613c5c565b60405180910390fd5b600081600001819055506000801b81600101819055503073ffffffffffffffffffffffffffffffffffffffff16631c37a82287878787876040518663ffffffff1660e01b8152600401611a17959493929190613f1d565b600060405180830381600087803b158015611a3157600080fd5b505af1158015611a45573d6000803e3d6000fd5b50505050505050505050565b6000600660008473ffffffffffffffffffffffffffffffffffffffff1673ffffffffffffffffffffffffffffffffffffffff16815260200190815260200160002060008373ffffffffffffffffffffffffffffffffffffffff1673ffffffffffffffffffffffffffffffffffffffff16815260200190815260200160002060009054906101000a900460ff16905092915050565b611aed611d61565b73ffffffffffffffffffffffffffffffffffffffff16611b0b6112e4565b73ffffffffffffffffffffffffffffffffffffffff1614611b61576040517f08c379a0000000000000000000000000000000000000000000000000000000008152600401611b5890613dbc565b60405180910390fd5b8181600960008661ffff1661ffff1681526020019081526020016000209190611b8b929190612b4d565b50505050565b565b611b9b611d61565b73ffffffffffffffffffffffffffffffffffffffff16611bb96112e4565b73ffffffffffffffffffffffffffffffffffffffff1614611c0f576040517f08c379a0000000000000000000000000000000000000000000000000000000008152600401611c0690613dbc565b60405180910390fd5b600073ffffffffffffffffffffffffffffffffffffffff168173ffffffffffffffffffffffffffffffffffffffff161415611c7f576040517f08c379a0000000000000000000000000000000000000000000000000000000008152600401611c7690613bdc565b60405180910390fd5b611c88816121a7565b50565b60007f01ffc9a7000000000000000000000000000000000000000000000000000000007bffffffffffffffffffffffffffffffffffffffffffffffffffffffff1916827bffffffffffffffffffffffffffffffffffffffffffffffffffffffff1916149050919050565b60008073ffffffffffffffffffffffffffffffffffffffff166003600084815260200190815260200160002060009054906101000a900473ffffffffffffffffffffffffffffffffffffffff1673ffffffffffffffffffffffffffffffffffffffff1614159050919050565b600033905090565b816005600083815260200190815260200160002060006101000a81548173ffffffffffffffffffffffffffffffffffffffff021916908373ffffffffffffffffffffffffffffffffffffffff160217905550808273ffffffffffffffffffffffffffffffffffffffff16611ddc83610f65565b73ffffffffffffffffffffffffffffffffffffffff167f8c5be1e5ebec7d5bd14f71427d1e84f3dd0314c0f7b2291e5b200ac8c7c3b92560405160405180910390a45050565b60008082806020019051810190611e399190612e25565b91509150611e478282612189565b505050505050565b6000611e5a82611cf5565b611e99576040517f08c379a0000000000000000000000000000000000000000000000000000000008152600401611e9090613cbc565b60405180910390fd5b6000611ea483610f65565b90508073ffffffffffffffffffffffffffffffffffffffff168473ffffffffffffffffffffffffffffffffffffffff161480611f1357508373ffffffffffffffffffffffffffffffffffffffff16611efb84610ade565b73ffffffffffffffffffffffffffffffffffffffff16145b80611f245750611f238185611a51565b5b91505092915050565b8273ffffffffffffffffffffffffffffffffffffffff16611f4d82610f65565b73ffffffffffffffffffffffffffffffffffffffff1614611fa3576040517f08c379a0000000000000000000000000000000000000000000000000000000008152600401611f9a90613dfc565b60405180910390fd5b600073ffffffffffffffffffffffffffffffffffffffff168273ffffffffffffffffffffffffffffffffffffffff161415612013576040517f08c379a000000000000000000000000000000000000000000000000000000000815260040161200a90613bfc565b60405180910390fd5b61201e838383612738565b612029600082611d69565b6001600460008573ffffffffffffffffffffffffffffffffffffffff1673ffffffffffffffffffffffffffffffffffffffff168152602001908152602001600020600082825461207991906141f0565b925050819055506001600460008473ffffffffffffffffffffffffffffffffffffffff1673ffffffffffffffffffffffffffffffffffffffff16815260200190815260200160002060008282546120d09190614169565b92505081905550816003600083815260200190815260200160002060006101000a81548173ffffffffffffffffffffffffffffffffffffffff021916908373ffffffffffffffffffffffffffffffffffffffff160217905550808273ffffffffffffffffffffffffffffffffffffffff168473ffffffffffffffffffffffffffffffffffffffff167fddf252ad1be2c89b69c2b068fc378daa952ba7f163c4a11628f55a4df523b3ef60405160405180910390a4505050565b6121a382826040518060200160405280600081525061273d565b5050565b60008060009054906101000a900473ffffffffffffffffffffffffffffffffffffffff169050816000806101000a81548173ffffffffffffffffffffffffffffffffffffffff021916908373ffffffffffffffffffffffffffffffffffffffff1602179055508173ffffffffffffffffffffffffffffffffffffffff168173ffffffffffffffffffffffffffffffffffffffff167f8be0079c531659141344cd1fd0a4f28419497f9722a3daafe3b4186f6b6457e060405160405180910390a35050565b8173ffffffffffffffffffffffffffffffffffffffff168373ffffffffffffffffffffffffffffffffffffffff1614156122da576040517f08c379a00000000000000000000000000000000000000000000000000000000081526004016122d190613c1c565b60405180910390fd5b80600660008573ffffffffffffffffffffffffffffffffffffffff1673ffffffffffffffffffffffffffffffffffffffff16815260200190815260200160002060008473ffffffffffffffffffffffffffffffffffffffff1673ffffffffffffffffffffffffffffffffffffffff16815260200190815260200160002060006101000a81548160ff0219169083151502179055508173ffffffffffffffffffffffffffffffffffffffff168373ffffffffffffffffffffffffffffffffffffffff167f17307eab39ab6107e8899845ad3d59bd9653f200f220920489ca2b5937696c31836040516123cb9190613b3d565b60405180910390a3505050565b6123e3848484611f2d565b6123ef84848484612798565b61242e576040517f08c379a000000000000000000000000000000000000000000000000000000000815260040161242590613bbc565b60405180910390fd5b50505050565b6060600b805461244390614325565b80601f016020809104026020016040519081016040528092919081815260200182805461246f90614325565b80156124bc5780601f10612491576101008083540402835291602001916124bc565b820191906000526020600020905b81548152906001019060200180831161249f57829003601f168201915b5050505050905090565b6060600082141561250e576040518060400160405280600181526020017f30000000000000000000000000000000000000000000000000000000000000008152509050612622565b600082905060005b6000821461254057808061252990614388565b915050600a8261253991906141bf565b9150612516565b60008167ffffffffffffffff81111561255c5761255b6144da565b5b6040519080825280601f01601f19166020018201604052801561258e5781602001600182028036833780820191505090505b5090505b6000851461261b576001826125a791906141f0565b9150600a856125b691906143ed565b60306125c29190614169565b60f81b8183815181106125d8576125d76144ab565b5b60200101907effffffffffffffffffffffffffffffffffffffffffffffffffffffffffffff1916908160001a905350600a8561261491906141bf565b9450612592565b8093505050505b919050565b600061263282610f65565b905061264081600084612738565b61264b600083611d69565b6001600460008373ffffffffffffffffffffffffffffffffffffffff1673ffffffffffffffffffffffffffffffffffffffff168152602001908152602001600020600082825461269b91906141f0565b925050819055506003600083815260200190815260200160002060006101000a81549073ffffffffffffffffffffffffffffffffffffffff021916905581600073ffffffffffffffffffffffffffffffffffffffff168273ffffffffffffffffffffffffffffffffffffffff167fddf252ad1be2c89b69c2b068fc378daa952ba7f163c4a11628f55a4df523b3ef60405160405180910390a45050565b505050565b612747838361292f565b6127546000848484612798565b612793576040517f08c379a000000000000000000000000000000000000000000000000000000000815260040161278a90613bbc565b60405180910390fd5b505050565b60006127b98473ffffffffffffffffffffffffffffffffffffffff16612ab4565b15612922578373ffffffffffffffffffffffffffffffffffffffff1663150b7a026127e2611d61565b8786866040518563ffffffff1660e01b81526004016128049493929190613ac8565b602060405180830381600087803b15801561281e57600080fd5b505af192505050801561284f57506040513d601f19601f8201168201806040525081019061284c9190613028565b60015b6128d2573d806000811461287f576040519150601f19603f3d011682016040523d82523d6000602084013e612884565b606091505b506000815114156128ca576040517f08c379a00000000000000000000000000000000000000000000000000000000081526004016128c190613bbc565b60405180910390fd5b805181602001fd5b63150b7a0260e01b7bffffffffffffffffffffffffffffffffffffffffffffffffffffffff1916817bffffffffffffffffffffffffffffffffffffffffffffffffffffffff191614915050612927565b600190505b949350505050565b600073ffffffffffffffffffffffffffffffffffffffff168273ffffffffffffffffffffffffffffffffffffffff16141561299f576040517f08c379a000000000000000000000000000000000000000000000000000000000815260040161299690613d7c565b60405180910390fd5b6129ab60008383612738565b6001600460008473ffffffffffffffffffffffffffffffffffffffff1673ffffffffffffffffffffffffffffffffffffffff16815260200190815260200160002060008282546129fb9190614169565b92505081905550816003600083815260200190815260200160002060006101000a81548173ffffffffffffffffffffffffffffffffffffffff021916908373ffffffffffffffffffffffffffffffffffffffff160217905550808273ffffffffffffffffffffffffffffffffffffffff16600073ffffffffffffffffffffffffffffffffffffffff167fddf252ad1be2c89b69c2b068fc378daa952ba7f163c4a11628f55a4df523b3ef60405160405180910390a45050565b600080823b905060008111915050919050565b828054612ad390614325565b90600052602060002090601f016020900481019282612af55760008555612b3c565b82601f10612b0e57805160ff1916838001178555612b3c565b82800160010185558215612b3c579182015b82811115612b3b578251825591602001919060010190612b20565b5b509050612b499190612bd3565b5090565b828054612b5990614325565b90600052602060002090601f016020900481019282612b7b5760008555612bc2565b82601f10612b9457803560ff1916838001178555612bc2565b82800160010185558215612bc2579182015b82811115612bc1578235825591602001919060010190612ba6565b5b509050612bcf9190612bd3565b5090565b5b80821115612bec576000816000905550600101612bd4565b5090565b6000612c03612bfe846140a4565b61407f565b905082815260208101848484011115612c1f57612c1e614518565b5b612c2a8482856142e3565b509392505050565b6000612c45612c40846140d5565b61407f565b905082815260208101848484011115612c6157612c60614518565b5b612c6c8482856142e3565b509392505050565b600081359050612c8381614c41565b92915050565b600081519050612c9881614c58565b92915050565b600081359050612cad81614c6f565b92915050565b600081359050612cc281614c86565b92915050565b600081519050612cd781614c86565b92915050565b60008083601f840112612cf357612cf261450e565b5b8235905067ffffffffffffffff811115612d1057612d0f614509565b5b602083019150836001820283011115612d2c57612d2b614513565b5b9250929050565b600082601f830112612d4857612d4761450e565b5b8135612d58848260208601612bf0565b91505092915050565b600082601f830112612d7657612d7561450e565b5b8135612d86848260208601612c32565b91505092915050565b600081359050612d9e81614c9d565b92915050565b600081359050612db381614cb4565b92915050565b600081519050612dc881614cb4565b92915050565b600081359050612ddd81614ccb565b92915050565b600081359050612df281614ce2565b92915050565b600060208284031215612e0e57612e0d614522565b5b6000612e1c84828501612c74565b91505092915050565b60008060408385031215612e3c57612e3b614522565b5b6000612e4a85828601612c89565b9250506020612e5b85828601612db9565b9150509250929050565b60008060408385031215612e7c57612e7b614522565b5b6000612e8a85828601612c74565b9250506020612e9b85828601612c74565b9150509250929050565b600080600060608486031215612ebe57612ebd614522565b5b6000612ecc86828701612c74565b9350506020612edd86828701612c74565b9250506040612eee86828701612da4565b9150509250925092565b60008060008060808587031215612f1257612f11614522565b5b6000612f2087828801612c74565b9450506020612f3187828801612c74565b9350506040612f4287828801612da4565b925050606085013567ffffffffffffffff811115612f6357612f6261451d565b5b612f6f87828801612d33565b91505092959194509250565b60008060408385031215612f9257612f91614522565b5b6000612fa085828601612c74565b9250506020612fb185828601612c9e565b9150509250929050565b60008060408385031215612fd257612fd1614522565b5b6000612fe085828601612c74565b9250506020612ff185828601612da4565b9150509250929050565b60006020828403121561301157613010614522565b5b600061301f84828501612cb3565b91505092915050565b60006020828403121561303e5761303d614522565b5b600061304c84828501612cc8565b91505092915050565b60006020828403121561306b5761306a614522565b5b600082013567ffffffffffffffff8111156130895761308861451d565b5b61309584828501612d61565b91505092915050565b6000602082840312156130b4576130b3614522565b5b60006130c284828501612d8f565b91505092915050565b6000806000604084860312156130e4576130e3614522565b5b60006130f286828701612d8f565b935050602084013567ffffffffffffffff8111156131135761311261451d565b5b61311f86828701612cdd565b92509250509250925092565b60008060006060848603121561314457613143614522565b5b600061315286828701612d8f565b935050602084013567ffffffffffffffff8111156131735761317261451d565b5b61317f86828701612d33565b925050604061319086828701612da4565b9150509250925092565b6000806000806000608086880312156131b6576131b5614522565b5b60006131c488828901612d8f565b955050602086013567ffffffffffffffff8111156131e5576131e461451d565b5b6131f188828901612d33565b945050604061320288828901612dce565b935050606086013567ffffffffffffffff8111156132235761322261451d565b5b61322f88828901612cdd565b92509250509295509295909350565b6000806000806080858703121561325857613257614522565b5b600061326687828801612d8f565b945050602085013567ffffffffffffffff8111156132875761328661451d565b5b61329387828801612d33565b93505060406132a487828801612dce565b925050606085013567ffffffffffffffff8111156132c5576132c461451d565b5b6132d187828801612d33565b91505092959194509250565b600080604083850312156132f4576132f3614522565b5b600061330285828601612d8f565b925050602061331385828601612da4565b9150509250929050565b60006020828403121561333357613332614522565b5b600061334184828501612da4565b91505092915050565b6000806040838503121561336157613360614522565b5b600061336f85828601612db9565b925050602061338085828601612db9565b9150509250929050565b6000602082840312156133a05761339f614522565b5b60006133ae84828501612de3565b91505092915050565b6133c081614236565b82525050565b6133cf81614224565b82525050565b6133de81614248565b82525050565b6133ed81614254565b82525050565b60006133ff8385614131565b935061340c8385846142e3565b61341583614527565b840190509392505050565b600061342c8385614142565b93506134398385846142e3565b82840190509392505050565b60006134508261411b565b61345a8185614131565b935061346a8185602086016142f2565b61347381614527565b840191505092915050565b60006134898261411b565b6134938185614142565b93506134a38185602086016142f2565b80840191505092915050565b600081546134bc81614325565b6134c68186614131565b945060018216600081146134e157600181146134f357613526565b60ff1983168652602086019350613526565b6134fc85614106565b60005b8381101561351e578154818901526001820191506020810190506134ff565b808801955050505b50505092915050565b6000815461353c81614325565b6135468186614142565b945060018216600081146135615760018114613572576135a5565b60ff198316865281860193506135a5565b61357b85614106565b60005b8381101561359d5781548189015260018201915060208101905061357e565b838801955050505b50505092915050565b60006135b982614126565b6135c3818561414d565b93506135d38185602086016142f2565b6135dc81614527565b840191505092915050565b60006135f282614126565b6135fc818561415e565b935061360c8185602086016142f2565b80840191505092915050565b600061362560208361414d565b915061363082614545565b602082019050919050565b600061364860328361414d565b91506136538261456e565b604082019050919050565b600061366b60268361414d565b9150613676826145bd565b604082019050919050565b600061368e60248361414d565b91506136998261460c565b604082019050919050565b60006136b160198361414d565b91506136bc8261465b565b602082019050919050565b60006136d4602e8361414d565b91506136df82614684565b604082019050919050565b60006136f7601a8361414d565b9150613702826146d3565b602082019050919050565b600061371a604b8361414d565b9150613725826146fc565b606082019050919050565b600061373d60228361414d565b915061374882614771565b604082019050919050565b6000613760602c8361414d565b915061376b826147c0565b604082019050919050565b600061378360388361414d565b915061378e8261480f565b604082019050919050565b60006137a6602a8361414d565b91506137b18261485e565b604082019050919050565b60006137c960298361414d565b91506137d4826148ad565b604082019050919050565b60006137ec602b8361414d565b91506137f7826148fc565b604082019050919050565b600061380f60228361414d565b915061381a8261494b565b604082019050919050565b600061383260208361414d565b915061383d8261499a565b602082019050919050565b6000613855602c8361414d565b9150613860826149c3565b604082019050919050565b600061387860208361414d565b915061388382614a12565b602082019050919050565b600061389b60348361414d565b91506138a682614a3b565b604082019050919050565b60006138be60298361414d565b91506138c982614a8a565b604082019050919050565b60006138e1602f8361414d565b91506138ec82614ad9565b604082019050919050565b600061390460218361414d565b915061390f82614b28565b604082019050919050565b6000613927601b8361414d565b915061393282614b77565b602082019050919050565b600061394a600083614142565b915061395582614ba0565b600082019050919050565b600061396d60318361414d565b915061397882614ba3565b604082019050919050565b600061399060268361414d565b915061399b82614bf2565b604082019050919050565b6139af8161428a565b82525050565b6139c66139c18261428a565b6143d1565b82525050565b6139d5816142b8565b82525050565b6139ec6139e7826142b8565b6143e3565b82525050565b6139fb816142c2565b82525050565b6000613a0e828486613420565b91508190509392505050565b6000613a26828461347e565b915081905092915050565b6000613a3d828461352f565b915081905092915050565b6000613a5482856135e7565b9150613a6082846135e7565b91508190509392505050565b6000613a778261393d565b9150819050919050565b6000613a8d82856139b5565b600282019150613a9d82846139db565b6020820191508190509392505050565b6000602082019050613ac260008301846133c6565b92915050565b6000608082019050613add60008301876133c6565b613aea60208301866133c6565b613af760408301856139cc565b8181036060830152613b098184613445565b905095945050505050565b6000604082019050613b2960008301856133c6565b613b3660208301846139cc565b9392505050565b6000602082019050613b5260008301846133d5565b92915050565b60006020820190508181036000830152613b728184613445565b905092915050565b60006020820190508181036000830152613b9481846135ae565b905092915050565b60006020820190508181036000830152613bb581613618565b9050919050565b60006020820190508181036000830152613bd58161363b565b9050919050565b60006020820190508181036000830152613bf58161365e565b9050919050565b60006020820190508181036000830152613c1581613681565b9050919050565b60006020820190508181036000830152613c35816136a4565b9050919050565b60006020820190508181036000830152613c55816136c7565b9050919050565b60006020820190508181036000830152613c75816136ea565b9050919050565b60006020820190508181036000830152613c958161370d565b9050919050565b60006020820190508181036000830152613cb581613730565b9050919050565b60006020820190508181036000830152613cd581613753565b9050919050565b60006020820190508181036000830152613cf581613776565b9050919050565b60006020820190508181036000830152613d1581613799565b9050919050565b60006020820190508181036000830152613d35816137bc565b9050919050565b60006020820190508181036000830152613d55816137df565b9050919050565b60006020820190508181036000830152613d7581613802565b9050919050565b60006020820190508181036000830152613d9581613825565b9050919050565b60006020820190508181036000830152613db581613848565b9050919050565b60006020820190508181036000830152613dd58161386b565b9050919050565b60006020820190508181036000830152613df58161388e565b9050919050565b60006020820190508181036000830152613e15816138b1565b9050919050565b60006020820190508181036000830152613e35816138d4565b9050919050565b60006020820190508181036000830152613e55816138f7565b9050919050565b60006020820190508181036000830152613e758161391a565b9050919050565b60006020820190508181036000830152613e9581613960565b9050919050565b60006020820190508181036000830152613eb581613983565b9050919050565b600060a082019050613ed160008301886139a6565b613ede60208301876133c6565b8181036040830152613ef08186613445565b9050613eff60608301856133d5565b8181036080830152613f118184613445565b90509695505050505050565b6000608082019050613f3260008301886139a6565b8181036020830152613f448187613445565b9050613f5360408301866139f2565b8181036060830152613f668184866133f3565b90509695505050505050565b6000608082019050613f8760008301876139a6565b8181036020830152613f998186613445565b9050613fa860408301856139f2565b8181036060830152613fba8184613445565b905095945050505050565b600060c082019050613fda60008301896139a6565b8181036020830152613fec81886134af565b905081810360408301526140008187613445565b905061400f60608301866133b7565b61401c60808301856133c6565b81810360a083015261402e8184613445565b9050979650505050505050565b600060208201905061405060008301846139cc565b92915050565b600060408201905061406b60008301856139cc565b61407860208301846133e4565b9392505050565b600061408961409a565b90506140958282614357565b919050565b6000604051905090565b600067ffffffffffffffff8211156140bf576140be6144da565b5b6140c882614527565b9050602081019050919050565b600067ffffffffffffffff8211156140f0576140ef6144da565b5b6140f982614527565b9050602081019050919050565b60008190508160005260206000209050919050565b600081519050919050565b600081519050919050565b600082825260208201905092915050565b600081905092915050565b600082825260208201905092915050565b600081905092915050565b6000614174826142b8565b915061417f836142b8565b9250827fffffffffffffffffffffffffffffffffffffffffffffffffffffffffffffffff038211156141b4576141b361441e565b5b828201905092915050565b60006141ca826142b8565b91506141d5836142b8565b9250826141e5576141e461444d565b5b828204905092915050565b60006141fb826142b8565b9150614206836142b8565b9250828210156142195761421861441e565b5b828203905092915050565b600061422f82614298565b9050919050565b600061424182614298565b9050919050565b60008115159050919050565b6000819050919050565b60007fffffffff0000000000000000000000000000000000000000000000000000000082169050919050565b600061ffff82169050919050565b600073ffffffffffffffffffffffffffffffffffffffff82169050919050565b6000819050919050565b600067ffffffffffffffff82169050919050565b600060ff82169050919050565b82818337600083830152505050565b60005b838110156143105780820151818401526020810190506142f5565b8381111561431f576000848401525b50505050565b6000600282049050600182168061433d57607f821691505b602082108114156143515761435061447c565b5b50919050565b61436082614527565b810181811067ffffffffffffffff8211171561437f5761437e6144da565b5b80604052505050565b6000614393826142b8565b91507fffffffffffffffffffffffffffffffffffffffffffffffffffffffffffffffff8214156143c6576143c561441e565b5b600182019050919050565b60006143dc82614538565b9050919050565b6000819050919050565b60006143f8826142b8565b9150614403836142b8565b9250826144135761441261444d565b5b828206905092915050565b7f4e487b7100000000000000000000000000000000000000000000000000000000600052601160045260246000fd5b7f4e487b7100000000000000000000000000000000000000000000000000000000600052601260045260246000fd5b7f4e487b7100000000000000000000000000000000000000000000000000000000600052602260045260246000fd5b7f4e487b7100000000000000000000000000000000000000000000000000000000600052603260045260246000fd5b7f4e487b7100000000000000000000000000000000000000000000000000000000600052604160045260246000fd5b600080fd5b600080fd5b600080fd5b600080fd5b600080fd5b600080fd5b6000601f19601f8301169050919050565b60008160f01b9050919050565b7f4361766561743a204661696c656420746f207769746864726177204574686572600082015250565b7f4552433732313a207472616e7366657220746f206e6f6e20455243373231526560008201527f63656976657220696d706c656d656e7465720000000000000000000000000000602082015250565b7f4f776e61626c653a206e6577206f776e657220697320746865207a65726f206160008201527f6464726573730000000000000000000000000000000000000000000000000000602082015250565b7f4552433732313a207472616e7366657220746f20746865207a65726f2061646460008201527f7265737300000000000000000000000000000000000000000000000000000000602082015250565b7f4552433732313a20617070726f766520746f2063616c6c657200000000000000600082015250565b7f5468697320636861696e2069732063757272656e746c7920756e617661696c6160008201527f626c6520666f722074726176656c000000000000000000000000000000000000602082015250565b7f4c617965725a65726f3a20696e76616c6964207061796c6f6164000000000000600082015250565b7f4361766561743a206d73672e76616c7565206e6f7420656e6f75676820746f2060008201527f636f766572206d6573736167654665652e2053656e642067617320666f72206d60208201527f6573736167652066656573000000000000000000000000000000000000000000604082015250565b7f596f75206d757374206f776e2074686520746f6b656e20746f2074726176657260008201527f7365000000000000000000000000000000000000000000000000000000000000602082015250565b7f4552433732313a206f70657261746f7220717565727920666f72206e6f6e657860008201527f697374656e7420746f6b656e0000000000000000000000000000000000000000602082015250565b7f4552433732313a20617070726f76652063616c6c6572206973206e6f74206f7760008201527f6e6572206e6f7220617070726f76656420666f7220616c6c0000000000000000602082015250565b7f4552433732313a2062616c616e636520717565727920666f7220746865207a6560008201527f726f206164647265737300000000000000000000000000000000000000000000602082015250565b7f4552433732313a206f776e657220717565727920666f72206e6f6e657869737460008201527f656e7420746f6b656e0000000000000000000000000000000000000000000000602082015250565b7f4e6f6e626c6f636b696e6752656365697665723a2063616c6c6572206d75737460008201527f206265204272696467652e000000000000000000000000000000000000000000602082015250565b7f4361766561743a204d61782032204e46547320706572207472616e736163746960008201527f6f6e000000000000000000000000000000000000000000000000000000000000602082015250565b7f4552433732313a206d696e7420746f20746865207a65726f2061646472657373600082015250565b7f4552433732313a20617070726f76656420717565727920666f72206e6f6e657860008201527f697374656e7420746f6b656e0000000000000000000000000000000000000000602082015250565b7f4f776e61626c653a2063616c6c6572206973206e6f7420746865206f776e6572600082015250565b7f4e6f6e626c6f636b696e6752656365697665723a20696e76616c696420736f7560008201527f7263652073656e64696e6720636f6e7472616374000000000000000000000000602082015250565b7f4552433732313a207472616e73666572206f6620746f6b656e2074686174206960008201527f73206e6f74206f776e0000000000000000000000000000000000000000000000602082015250565b7f4552433732314d657461646174613a2055524920717565727920666f72206e6f60008201527f6e6578697374656e7420746f6b656e0000000000000000000000000000000000602082015250565b7f4552433732313a20617070726f76616c20746f2063757272656e74206f776e6560008201527f7200000000000000000000000000000000000000000000000000000000000000602082015250565b7f4361766561743a204d696e74206578636565647320737570706c790000000000600082015250565b50565b7f4552433732313a207472616e736665722063616c6c6572206973206e6f74206f60008201527f776e6572206e6f7220617070726f766564000000000000000000000000000000602082015250565b7f4e6f6e626c6f636b696e6752656365697665723a206e6f2073746f726564206d60008201527f6573736167650000000000000000000000000000000000000000000000000000602082015250565b614c4a81614224565b8114614c5557600080fd5b50565b614c6181614236565b8114614c6c57600080fd5b50565b614c7881614248565b8114614c8357600080fd5b50565b614c8f8161425e565b8114614c9a57600080fd5b50565b614ca68161428a565b8114614cb157600080fd5b50565b614cbd816142b8565b8114614cc857600080fd5b50565b614cd4816142c2565b8114614cdf57600080fd5b50565b614ceb816142d6565b8114614cf657600080fd5b5056fea26469706673582212204a30363abf44b56b65d50f1fb9f5d11d5547fee831f8a074f4632664cc5d47d364736f6c63430008070033",
  "linkReferences": {},
  "deployedLinkReferences": {}
}