{
  "_format": "hh-sol-artifact-1",
  "contractName": "Caveat",
  "sourceName": "contracts/Caveat.sol",
  "abi": [
    {
      "inputs": [
        {
          "internalType": "string",
          "name": "baseURI_",
          "type": "string"
        },
        {
          "internalType": "address",
          "name": "_layerZeroEndpoint",
          "type": "address"
        }
      ],
      "stateMutability": "nonpayable",
      "type": "constructor"
    },
    {
      "anonymous": false,
      "inputs": [
        {
          "indexed": true,
          "internalType": "address",
          "name": "owner",
          "type": "address"
        },
        {
          "indexed": true,
          "internalType": "address",
          "name": "approved",
          "type": "address"
        },
        {
          "indexed": true,
          "internalType": "uint256",
          "name": "tokenId",
          "type": "uint256"
        }
      ],
      "name": "Approval",
      "type": "event"
    },
    {
      "anonymous": false,
      "inputs": [
        {
          "indexed": true,
          "internalType": "address",
          "name": "owner",
          "type": "address"
        },
        {
          "indexed": true,
          "internalType": "address",
          "name": "operator",
          "type": "address"
        },
        {
          "indexed": false,
          "internalType": "bool",
          "name": "approved",
          "type": "bool"
        }
      ],
      "name": "ApprovalForAll",
      "type": "event"
    },
    {
      "anonymous": false,
      "inputs": [
        {
          "indexed": false,
          "internalType": "uint16",
          "name": "_srcChainId",
          "type": "uint16"
        },
        {
          "indexed": false,
          "internalType": "bytes",
          "name": "_srcAddress",
          "type": "bytes"
        },
        {
          "indexed": false,
          "internalType": "uint64",
          "name": "_nonce",
          "type": "uint64"
        },
        {
          "indexed": false,
          "internalType": "bytes",
          "name": "_payload",
          "type": "bytes"
        }
      ],
      "name": "MessageFailed",
      "type": "event"
    },
    {
      "anonymous": false,
      "inputs": [
        {
          "indexed": true,
          "internalType": "address",
          "name": "previousOwner",
          "type": "address"
        },
        {
          "indexed": true,
          "internalType": "address",
          "name": "newOwner",
          "type": "address"
        }
      ],
      "name": "OwnershipTransferred",
      "type": "event"
    },
    {
      "anonymous": false,
      "inputs": [
        {
          "indexed": true,
          "internalType": "address",
          "name": "from",
          "type": "address"
        },
        {
          "indexed": true,
          "internalType": "address",
          "name": "to",
          "type": "address"
        },
        {
          "indexed": true,
          "internalType": "uint256",
          "name": "tokenId",
          "type": "uint256"
        }
      ],
      "name": "Transfer",
      "type": "event"
    },
    {
      "inputs": [],
      "name": "MAX_MINT_ETHEREUM",
      "outputs": [
        {
          "internalType": "uint256",
          "name": "",
          "type": "uint256"
        }
      ],
      "stateMutability": "view",
      "type": "function"
    },
    {
      "inputs": [],
      "name": "_owner",
      "outputs": [
        {
          "internalType": "address",
          "name": "",
          "type": "address"
        }
      ],
      "stateMutability": "view",
      "type": "function"
    },
    {
      "inputs": [
        {
          "internalType": "address",
          "name": "to",
          "type": "address"
        },
        {
          "internalType": "uint256",
          "name": "tokenId",
          "type": "uint256"
        }
      ],
      "name": "approve",
      "outputs": [],
      "stateMutability": "nonpayable",
      "type": "function"
    },
    {
      "inputs": [
        {
          "internalType": "address",
          "name": "owner",
          "type": "address"
        }
      ],
      "name": "balanceOf",
      "outputs": [
        {
          "internalType": "uint256",
          "name": "",
          "type": "uint256"
        }
      ],
      "stateMutability": "view",
      "type": "function"
    },
    {
      "inputs": [],
      "name": "donate",
      "outputs": [],
      "stateMutability": "payable",
      "type": "function"
    },
    {
      "inputs": [
        {
          "internalType": "uint16",
          "name": "_chainId",
          "type": "uint16"
        },
        {
          "internalType": "uint256",
          "name": "_id",
          "type": "uint256"
        }
      ],
      "name": "estimateFeesSendNFT",
      "outputs": [
        {
          "internalType": "uint256",
          "name": "fees",
          "type": "uint256"
        }
      ],
      "stateMutability": "view",
      "type": "function"
    },
    {
      "inputs": [
        {
          "internalType": "uint16",
          "name": "",
          "type": "uint16"
        },
        {
          "internalType": "bytes",
          "name": "",
          "type": "bytes"
        },
        {
          "internalType": "uint256",
          "name": "",
          "type": "uint256"
        }
      ],
      "name": "failedMessages",
      "outputs": [
        {
          "internalType": "uint256",
          "name": "payloadLength",
          "type": "uint256"
        },
        {
          "internalType": "bytes32",
          "name": "payloadHash",
          "type": "bytes32"
        }
      ],
      "stateMutability": "view",
      "type": "function"
    },
    {
      "inputs": [
        {
          "internalType": "uint256",
          "name": "tokenId",
          "type": "uint256"
        }
      ],
      "name": "getApproved",
      "outputs": [
        {
          "internalType": "address",
          "name": "",
          "type": "address"
        }
      ],
      "stateMutability": "view",
      "type": "function"
    },
    {
      "inputs": [
        {
          "internalType": "address",
          "name": "owner",
          "type": "address"
        },
        {
          "internalType": "address",
          "name": "operator",
          "type": "address"
        }
      ],
      "name": "isApprovedForAll",
      "outputs": [
        {
          "internalType": "bool",
          "name": "",
          "type": "bool"
        }
      ],
      "stateMutability": "view",
      "type": "function"
    },
    {
      "inputs": [
        {
          "internalType": "uint16",
          "name": "_srcChainId",
          "type": "uint16"
        },
        {
          "internalType": "bytes",
          "name": "_srcAddress",
          "type": "bytes"
        },
        {
          "internalType": "uint64",
          "name": "_nonce",
          "type": "uint64"
        },
        {
          "internalType": "bytes",
          "name": "_payload",
          "type": "bytes"
        }
      ],
      "name": "lzReceive",
      "outputs": [],
      "stateMutability": "nonpayable",
      "type": "function"
    },
    {
      "inputs": [
        {
          "internalType": "uint8",
          "name": "numTokens",
          "type": "uint8"
        }
      ],
      "name": "mint",
      "outputs": [],
      "stateMutability": "payable",
      "type": "function"
    },
    {
      "inputs": [],
      "name": "name",
      "outputs": [
        {
          "internalType": "string",
          "name": "",
          "type": "string"
        }
      ],
      "stateMutability": "view",
      "type": "function"
    },
    {
      "inputs": [],
      "name": "nextTokenId",
      "outputs": [
        {
          "internalType": "uint256",
          "name": "",
          "type": "uint256"
        }
      ],
      "stateMutability": "view",
      "type": "function"
    },
    {
      "inputs": [
        {
          "internalType": "uint16",
          "name": "_srcChainId",
          "type": "uint16"
        },
        {
          "internalType": "bytes",
          "name": "_srcAddress",
          "type": "bytes"
        },
        {
          "internalType": "uint64",
          "name": "_nonce",
          "type": "uint64"
        },
        {
          "internalType": "bytes",
          "name": "_payload",
          "type": "bytes"
        }
      ],
      "name": "onLzReceive",
      "outputs": [],
      "stateMutability": "nonpayable",
      "type": "function"
    },
    {
      "inputs": [],
      "name": "owner",
      "outputs": [
        {
          "internalType": "address",
          "name": "",
          "type": "address"
        }
      ],
      "stateMutability": "view",
      "type": "function"
    },
    {
      "inputs": [
        {
          "internalType": "uint256",
          "name": "tokenId",
          "type": "uint256"
        }
      ],
      "name": "ownerOf",
      "outputs": [
        {
          "internalType": "address",
          "name": "",
          "type": "address"
        }
      ],
      "stateMutability": "view",
      "type": "function"
    },
    {
      "inputs": [],
      "name": "renounceOwnership",
      "outputs": [],
      "stateMutability": "nonpayable",
      "type": "function"
    },
    {
      "inputs": [
        {
          "internalType": "uint16",
          "name": "_srcChainId",
          "type": "uint16"
        },
        {
          "internalType": "bytes",
          "name": "_srcAddress",
          "type": "bytes"
        },
        {
          "internalType": "uint64",
          "name": "_nonce",
          "type": "uint64"
        },
        {
          "internalType": "bytes",
          "name": "_payload",
          "type": "bytes"
        }
      ],
      "name": "retryMessage",
      "outputs": [],
      "stateMutability": "payable",
      "type": "function"
    },
    {
      "inputs": [
        {
          "internalType": "address",
          "name": "from",
          "type": "address"
        },
        {
          "internalType": "address",
          "name": "to",
          "type": "address"
        },
        {
          "internalType": "uint256",
          "name": "tokenId",
          "type": "uint256"
        }
      ],
      "name": "safeTransferFrom",
      "outputs": [],
      "stateMutability": "nonpayable",
      "type": "function"
    },
    {
      "inputs": [
        {
          "internalType": "address",
          "name": "from",
          "type": "address"
        },
        {
          "internalType": "address",
          "name": "to",
          "type": "address"
        },
        {
          "internalType": "uint256",
          "name": "tokenId",
          "type": "uint256"
        },
        {
          "internalType": "bytes",
          "name": "_data",
          "type": "bytes"
        }
      ],
      "name": "safeTransferFrom",
      "outputs": [],
      "stateMutability": "nonpayable",
      "type": "function"
    },
    {
      "inputs": [
        {
          "internalType": "address",
          "name": "operator",
          "type": "address"
        },
        {
          "internalType": "bool",
          "name": "approved",
          "type": "bool"
        }
      ],
      "name": "setApprovalForAll",
      "outputs": [],
      "stateMutability": "nonpayable",
      "type": "function"
    },
    {
      "inputs": [
        {
          "internalType": "string",
          "name": "URI",
          "type": "string"
        }
      ],
      "name": "setBaseURI",
      "outputs": [],
      "stateMutability": "nonpayable",
      "type": "function"
    },
    {
      "inputs": [
        {
          "internalType": "uint256",
          "name": "newVal",
          "type": "uint256"
        }
      ],
      "name": "setGasForDestinationLzReceive",
      "outputs": [],
      "stateMutability": "nonpayable",
      "type": "function"
    },
    {
      "inputs": [
        {
          "internalType": "uint16",
          "name": "_chainId",
          "type": "uint16"
        },
        {
          "internalType": "bytes",
          "name": "_trustedRemote",
          "type": "bytes"
        }
      ],
      "name": "setTrustedRemote",
      "outputs": [],
      "stateMutability": "nonpayable",
      "type": "function"
    },
    {
      "inputs": [
        {
          "internalType": "bytes4",
          "name": "interfaceId",
          "type": "bytes4"
        }
      ],
      "name": "supportsInterface",
      "outputs": [
        {
          "internalType": "bool",
          "name": "",
          "type": "bool"
        }
      ],
      "stateMutability": "view",
      "type": "function"
    },
    {
      "inputs": [],
      "name": "symbol",
      "outputs": [
        {
          "internalType": "string",
          "name": "",
          "type": "string"
        }
      ],
      "stateMutability": "view",
      "type": "function"
    },
    {
      "inputs": [
        {
          "internalType": "uint256",
          "name": "tokenId",
          "type": "uint256"
        }
      ],
      "name": "tokenURI",
      "outputs": [
        {
          "internalType": "string",
          "name": "",
          "type": "string"
        }
      ],
      "stateMutability": "view",
      "type": "function"
    },
    {
      "inputs": [
        {
          "internalType": "address",
          "name": "from",
          "type": "address"
        },
        {
          "internalType": "address",
          "name": "to",
          "type": "address"
        },
        {
          "internalType": "uint256",
          "name": "tokenId",
          "type": "uint256"
        }
      ],
      "name": "transferFrom",
      "outputs": [],
      "stateMutability": "nonpayable",
      "type": "function"
    },
    {
      "inputs": [
        {
          "internalType": "address",
          "name": "newOwner",
          "type": "address"
        }
      ],
      "name": "transferOwnership",
      "outputs": [],
      "stateMutability": "nonpayable",
      "type": "function"
    },
    {
      "inputs": [
        {
          "internalType": "uint16",
          "name": "_chainId",
          "type": "uint16"
        },
        {
          "internalType": "uint256",
          "name": "tokenId",
          "type": "uint256"
        }
      ],
      "name": "traverseChains",
      "outputs": [],
      "stateMutability": "payable",
      "type": "function"
    },
    {
      "inputs": [
        {
          "internalType": "uint16",
          "name": "",
          "type": "uint16"
        }
      ],
      "name": "trustedRemoteLookup",
      "outputs": [
        {
          "internalType": "bytes",
          "name": "",
          "type": "bytes"
        }
      ],
      "stateMutability": "view",
      "type": "function"
    },
    {
      "inputs": [
        {
          "internalType": "uint256",
          "name": "amt",
          "type": "uint256"
        }
      ],
      "name": "withdraw",
      "outputs": [],
      "stateMutability": "nonpayable",
      "type": "function"
    }
  ],
  "bytecode": "0x60806040526000600c55612710600d5562055730600e553480156200002357600080fd5b506040516200558c3803806200558c8339818101604052810190620000499190620003bd565b6040518060400160405280600681526020017f43617665617400000000000000000000000000000000000000000000000000008152506040518060400160405280600681526020017f4361766561740000000000000000000000000000000000000000000000000000815250620000d5620000c9620001ac60201b60201c565b620001b460201b60201c565b8160019080519060200190620000ed92919062000278565b5080600290805190602001906200010692919062000278565b50505033600a60006101000a81548173ffffffffffffffffffffffffffffffffffffffff021916908373ffffffffffffffffffffffffffffffffffffffff16021790555080600760006101000a81548173ffffffffffffffffffffffffffffffffffffffff021916908373ffffffffffffffffffffffffffffffffffffffff16021790555081600b9080519060200190620001a392919062000278565b505050620005f5565b600033905090565b60008060009054906101000a900473ffffffffffffffffffffffffffffffffffffffff169050816000806101000a81548173ffffffffffffffffffffffffffffffffffffffff021916908373ffffffffffffffffffffffffffffffffffffffff1602179055508173ffffffffffffffffffffffffffffffffffffffff168173ffffffffffffffffffffffffffffffffffffffff167f8be0079c531659141344cd1fd0a4f28419497f9722a3daafe3b4186f6b6457e060405160405180910390a35050565b8280546200028690620004ec565b90600052602060002090601f016020900481019282620002aa5760008555620002f6565b82601f10620002c557805160ff1916838001178555620002f6565b82800160010185558215620002f6579182015b82811115620002f5578251825591602001919060010190620002d8565b5b50905062000305919062000309565b5090565b5b80821115620003245760008160009055506001016200030a565b5090565b60006200033f62000339846200044c565b62000423565b9050828152602081018484840111156200035e576200035d620005bb565b5b6200036b848285620004b6565b509392505050565b6000815190506200038481620005db565b92915050565b600082601f830112620003a257620003a1620005b6565b5b8151620003b484826020860162000328565b91505092915050565b60008060408385031215620003d757620003d6620005c5565b5b600083015167ffffffffffffffff811115620003f857620003f7620005c0565b5b62000406858286016200038a565b9250506020620004198582860162000373565b9150509250929050565b60006200042f62000442565b90506200043d828262000522565b919050565b6000604051905090565b600067ffffffffffffffff8211156200046a576200046962000587565b5b6200047582620005ca565b9050602081019050919050565b60006200048f8262000496565b9050919050565b600073ffffffffffffffffffffffffffffffffffffffff82169050919050565b60005b83811015620004d6578082015181840152602081019050620004b9565b83811115620004e6576000848401525b50505050565b600060028204905060018216806200050557607f821691505b602082108114156200051c576200051b62000558565b5b50919050565b6200052d82620005ca565b810181811067ffffffffffffffff821117156200054f576200054e62000587565b5b80604052505050565b7f4e487b7100000000000000000000000000000000000000000000000000000000600052602260045260246000fd5b7f4e487b7100000000000000000000000000000000000000000000000000000000600052604160045260246000fd5b600080fd5b600080fd5b600080fd5b600080fd5b6000601f19601f8301169050919050565b620005e68162000482565b8114620005f257600080fd5b50565b614f8780620006056000396000f3fe6080604052600436106101e25760003560e01c806375794a3c11610102578063b88d4fde11610095578063e985e9c511610064578063e985e9c5146106d7578063eb8d72b714610714578063ed88c68e1461073d578063f2fde38b14610747576101e2565b8063b88d4fde14610639578063c87b56dd14610662578063cf89fa031461069f578063d1deba1f146106bb576101e2565b806395d89b41116100d157806395d89b411461057d578063a1582f61146105a8578063a22cb465146105e5578063b2bdfa7b1461060e576101e2565b806375794a3c146104c05780638da5cb5b146104eb5780638ee7491214610516578063943fb87214610554576101e2565b806342842e0e1161017a5780636ecd2306116101495780636ecd23061461041357806370a082311461042f578063715018a61461046c5780637533d78814610483576101e2565b806342842e0e146103595780634d56b4e31461038257806355f804b3146103ad5780636352211e146103d6576101e2565b8063095ea7b3116101b6578063095ea7b3146102b55780631c37a822146102de57806323b872dd146103075780632e1a7d4d14610330576101e2565b80621d3567146101e757806301ffc9a71461021057806306fdde031461024d578063081812fc14610278575b600080fd5b3480156101f357600080fd5b5061020e60048036038101906102099190613404565b610770565b005b34801561021c57600080fd5b50610237600480360381019061023291906131c1565b6109b2565b6040516102449190613d26565b60405180910390f35b34801561025957600080fd5b50610262610a94565b60405161026f9190613d63565b60405180910390f35b34801561028457600080fd5b5061029f600480360381019061029a91906134e3565b610b26565b6040516102ac9190613c96565b60405180910390f35b3480156102c157600080fd5b506102dc60048036038101906102d79190613181565b610bab565b005b3480156102ea57600080fd5b5061030560048036038101906103009190613404565b610cc3565b005b34801561031357600080fd5b5061032e6004803603810190610329919061306b565b610d43565b005b34801561033c57600080fd5b50610357600480360381019061035291906134e3565b610da3565b005b34801561036557600080fd5b50610380600480360381019061037b919061306b565b610ef1565b005b34801561038e57600080fd5b50610397610f11565b6040516103a49190614244565b60405180910390f35b3480156103b957600080fd5b506103d460048036038101906103cf919061321b565b610f17565b005b3480156103e257600080fd5b506103fd60048036038101906103f891906134e3565b610fad565b60405161040a9190613c96565b60405180910390f35b61042d60048036038101906104289190613550565b61105f565b005b34801561043b57600080fd5b5061045660048036038101906104519190612fbe565b611146565b6040516104639190614244565b60405180910390f35b34801561047857600080fd5b506104816111fe565b005b34801561048f57600080fd5b506104aa60048036038101906104a59190613264565b611286565b6040516104b79190613d41565b60405180910390f35b3480156104cc57600080fd5b506104d5611326565b6040516104e29190614244565b60405180910390f35b3480156104f757600080fd5b5061050061132c565b60405161050d9190613c96565b60405180910390f35b34801561052257600080fd5b5061053d600480360381019061053891906132f1565b611355565b60405161054b92919061425f565b60405180910390f35b34801561056057600080fd5b5061057b600480360381019061057691906134e3565b6113a9565b005b34801561058957600080fd5b5061059261142f565b60405161059f9190613d63565b60405180910390f35b3480156105b457600080fd5b506105cf60048036038101906105ca91906134a3565b6114c1565b6040516105dc9190614244565b60405180910390f35b3480156105f157600080fd5b5061060c60048036038101906106079190613141565b61163f565b005b34801561061a57600080fd5b50610623611655565b6040516106309190613c96565b60405180910390f35b34801561064557600080fd5b50610660600480360381019061065b91906130be565b61167b565b005b34801561066e57600080fd5b50610689600480360381019061068491906134e3565b6116dd565b6040516106969190613d63565b60405180910390f35b6106b960048036038101906106b491906134a3565b611784565b005b6106d560048036038101906106d09190613360565b611a77565b005b3480156106e357600080fd5b506106fe60048036038101906106f9919061302b565b611c17565b60405161070b9190613d26565b60405180910390f35b34801561072057600080fd5b5061073b60048036038101906107369190613291565b611cab565b005b610745611d57565b005b34801561075357600080fd5b5061076e60048036038101906107699190612fbe565b611d59565b005b600760009054906101000a900473ffffffffffffffffffffffffffffffffffffffff1673ffffffffffffffffffffffffffffffffffffffff163373ffffffffffffffffffffffffffffffffffffffff16146107ca57600080fd5b600960008561ffff1661ffff16815260200190815260200160002080546107f09061452e565b905083511480156108365750600960008561ffff1661ffff1681526020019081526020016000206040516108249190613c1a565b60405180910390208380519060200120145b610875576040517f08c379a000000000000000000000000000000000000000000000000000000000815260040161086c90613fc5565b60405180910390fd5b3073ffffffffffffffffffffffffffffffffffffffff16631c37a822858585856040518563ffffffff1660e01b81526004016108b4949392919061417b565b600060405180830381600087803b1580156108ce57600080fd5b505af19250505080156108df575060015b6109ab576040518060400160405280825181526020018280519060200120815250600860008661ffff1661ffff168152602001908152602001600020846040516109299190613c03565b908152602001604051809103902060008467ffffffffffffffff16815260200190815260200160002060008201518160000155602082015181600101559050507fe6f254030bcb01ffd20558175c13fcaed6d1520be7becee4c961b65f79243b0d8484848460405161099e949392919061417b565b60405180910390a16109ac565b5b50505050565b60007f80ac58cd000000000000000000000000000000000000000000000000000000007bffffffffffffffffffffffffffffffffffffffffffffffffffffffff1916827bffffffffffffffffffffffffffffffffffffffffffffffffffffffff19161480610a7d57507f5b5e139f000000000000000000000000000000000000000000000000000000007bffffffffffffffffffffffffffffffffffffffffffffffffffffffff1916827bffffffffffffffffffffffffffffffffffffffffffffffffffffffff1916145b80610a8d5750610a8c82611e51565b5b9050919050565b606060018054610aa39061452e565b80601f0160208091040260200160405190810160405280929190818152602001828054610acf9061452e565b8015610b1c5780601f10610af157610100808354040283529160200191610b1c565b820191906000526020600020905b815481529060010190602001808311610aff57829003601f168201915b5050505050905090565b6000610b3182611ebb565b610b70576040517f08c379a0000000000000000000000000000000000000000000000000000000008152600401610b6790613f85565b60405180910390fd5b6005600083815260200190815260200160002060009054906101000a900473ffffffffffffffffffffffffffffffffffffffff169050919050565b6000610bb682610fad565b90508073ffffffffffffffffffffffffffffffffffffffff168373ffffffffffffffffffffffffffffffffffffffff161415610c27576040517f08c379a0000000000000000000000000000000000000000000000000000000008152600401610c1e90614045565b60405180910390fd5b8073ffffffffffffffffffffffffffffffffffffffff16610c46611f27565b73ffffffffffffffffffffffffffffffffffffffff161480610c755750610c7481610c6f611f27565b611c17565b5b610cb4576040517f08c379a0000000000000000000000000000000000000000000000000000000008152600401610cab90613ec5565b60405180910390fd5b610cbe8383611f2f565b505050565b3073ffffffffffffffffffffffffffffffffffffffff163373ffffffffffffffffffffffffffffffffffffffff1614610d31576040517f08c379a0000000000000000000000000000000000000000000000000000000008152600401610d2890613f25565b60405180910390fd5b610d3d84848484611fe8565b50505050565b610d54610d4e611f27565b82612015565b610d93576040517f08c379a0000000000000000000000000000000000000000000000000000000008152600401610d8a90614085565b60405180910390fd5b610d9e8383836120f3565b505050565b610dab611f27565b73ffffffffffffffffffffffffffffffffffffffff16610dc961132c565b73ffffffffffffffffffffffffffffffffffffffff1614610e1f576040517f08c379a0000000000000000000000000000000000000000000000000000000008152600401610e1690613fa5565b60405180910390fd5b6000600a60009054906101000a900473ffffffffffffffffffffffffffffffffffffffff1673ffffffffffffffffffffffffffffffffffffffff1682604051610e6790613c55565b60006040518083038185875af1925050503d8060008114610ea4576040519150601f19603f3d011682016040523d82523d6000602084013e610ea9565b606091505b5050905080610eed576040517f08c379a0000000000000000000000000000000000000000000000000000000008152600401610ee490613d85565b60405180910390fd5b5050565b610f0c8383836040518060200160405280600081525061167b565b505050565b600d5481565b610f1f611f27565b73ffffffffffffffffffffffffffffffffffffffff16610f3d61132c565b73ffffffffffffffffffffffffffffffffffffffff1614610f93576040517f08c379a0000000000000000000000000000000000000000000000000000000008152600401610f8a90613fa5565b60405180910390fd5b80600b9080519060200190610fa9929190612c8d565b5050565b6000806003600084815260200190815260200160002060009054906101000a900473ffffffffffffffffffffffffffffffffffffffff169050600073ffffffffffffffffffffffffffffffffffffffff168173ffffffffffffffffffffffffffffffffffffffff161415611056576040517f08c379a000000000000000000000000000000000000000000000000000000000815260040161104d90613f05565b60405180910390fd5b80915050919050565b60038160ff16106110a5576040517f08c379a000000000000000000000000000000000000000000000000000000000815260040161109c90613f45565b60405180910390fd5b600d548160ff16600c546110b99190614372565b11156110fa576040517f08c379a00000000000000000000000000000000000000000000000000000000081526004016110f190614065565b60405180910390fd5b61111833600c6000815461110d90614591565b91905081905561234f565b60028160ff1614156111435761114233600c6000815461113790614591565b91905081905561234f565b5b50565b60008073ffffffffffffffffffffffffffffffffffffffff168273ffffffffffffffffffffffffffffffffffffffff1614156111b7576040517f08c379a00000000000000000000000000000000000000000000000000000000081526004016111ae90613ee5565b60405180910390fd5b600460008373ffffffffffffffffffffffffffffffffffffffff1673ffffffffffffffffffffffffffffffffffffffff168152602001908152602001600020549050919050565b611206611f27565b73ffffffffffffffffffffffffffffffffffffffff1661122461132c565b73ffffffffffffffffffffffffffffffffffffffff161461127a576040517f08c379a000000000000000000000000000000000000000000000000000000000815260040161127190613fa5565b60405180910390fd5b611284600061236d565b565b600960205280600052604060002060009150905080546112a59061452e565b80601f01602080910402602001604051908101604052809291908181526020018280546112d19061452e565b801561131e5780601f106112f35761010080835404028352916020019161131e565b820191906000526020600020905b81548152906001019060200180831161130157829003601f168201915b505050505081565b600c5481565b60008060009054906101000a900473ffffffffffffffffffffffffffffffffffffffff16905090565b60086020528260005260406000208280516020810182018051848252602083016020850120818352809550505050505060205280600052604060002060009250925050508060000154908060010154905082565b6113b1611f27565b73ffffffffffffffffffffffffffffffffffffffff166113cf61132c565b73ffffffffffffffffffffffffffffffffffffffff1614611425576040517f08c379a000000000000000000000000000000000000000000000000000000000815260040161141c90613fa5565b60405180910390fd5b80600e8190555050565b60606002805461143e9061452e565b80601f016020809104026020016040519081016040528092919081815260200182805461146a9061452e565b80156114b75780601f1061148c576101008083540402835291602001916114b7565b820191906000526020600020905b81548152906001019060200180831161149a57829003601f168201915b5050505050905090565b600080600960008561ffff1661ffff16815260200190815260200160002080546114ea9061452e565b90501161152c576040517f08c379a000000000000000000000000000000000000000000000000000000000815260040161152390614005565b60405180910390fd5b60003383604051602001611541929190613cfd565b604051602081830303815290604052905060006001600e5460405160200161156a929190613c6a565b60405160208183030381529060405290506000600760009054906101000a900473ffffffffffffffffffffffffffffffffffffffff1673ffffffffffffffffffffffffffffffffffffffff166340a7bb108730866000876040518663ffffffff1660e01b81526004016115e19594939291906140c5565b604080518083038186803b1580156115f857600080fd5b505afa15801561160c573d6000803e3d6000fd5b505050506040513d601f19601f820116820180604052508101906116309190613510565b50905080935050505092915050565b61165161164a611f27565b8383612431565b5050565b600a60009054906101000a900473ffffffffffffffffffffffffffffffffffffffff1681565b61168c611686611f27565b83612015565b6116cb576040517f08c379a00000000000000000000000000000000000000000000000000000000081526004016116c290614085565b60405180910390fd5b6116d78484848461259e565b50505050565b60606116e882611ebb565b611727576040517f08c379a000000000000000000000000000000000000000000000000000000000815260040161171e90614025565b60405180910390fd5b60006117316125fa565b90506000815111611751576040518060200160405280600081525061177c565b8061175b8461268c565b60405160200161176c929190613c31565b6040516020818303038152906040525b915050919050565b61178d81610fad565b73ffffffffffffffffffffffffffffffffffffffff163373ffffffffffffffffffffffffffffffffffffffff16146117fa576040517f08c379a00000000000000000000000000000000000000000000000000000000081526004016117f190613e85565b60405180910390fd5b6000600960008461ffff1661ffff16815260200190815260200160002080546118229061452e565b905011611864576040517f08c379a000000000000000000000000000000000000000000000000000000000815260040161185b90613e25565b60405180910390fd5b61186d816127ed565b60003382604051602001611882929190613cfd565b6040516020818303038152906040529050600060019050600081600e546040516020016118b0929190613c6a565b60405160208183030381529060405290506000600760009054906101000a900473ffffffffffffffffffffffffffffffffffffffff1673ffffffffffffffffffffffffffffffffffffffff166340a7bb108730876000876040518663ffffffff1660e01b81526004016119279594939291906140c5565b604080518083038186803b15801561193e57600080fd5b505afa158015611952573d6000803e3d6000fd5b505050506040513d601f19601f820116820180604052508101906119769190613510565b509050803410156119bc576040517f08c379a00000000000000000000000000000000000000000000000000000000081526004016119b390613e65565b60405180910390fd5b600760009054906101000a900473ffffffffffffffffffffffffffffffffffffffff1673ffffffffffffffffffffffffffffffffffffffff1663c58031003488600960008b61ffff1661ffff16815260200190815260200160002088336000896040518863ffffffff1660e01b8152600401611a3d969594939291906141ce565b6000604051808303818588803b158015611a5657600080fd5b505af1158015611a6a573d6000803e3d6000fd5b5050505050505050505050565b6000600860008761ffff1661ffff16815260200190815260200160002085604051611aa29190613c03565b908152602001604051809103902060008567ffffffffffffffff16815260200190815260200160002090506000801b81600101541415611b17576040517f08c379a0000000000000000000000000000000000000000000000000000000008152600401611b0e906140a5565b60405180910390fd5b806000015483839050148015611b47575080600101548383604051611b3d929190613bea565b6040518091039020145b611b86576040517f08c379a0000000000000000000000000000000000000000000000000000000008152600401611b7d90613e45565b60405180910390fd5b600081600001819055506000801b81600101819055503073ffffffffffffffffffffffffffffffffffffffff16631c37a82287878787876040518663ffffffff1660e01b8152600401611bdd959493929190614126565b600060405180830381600087803b158015611bf757600080fd5b505af1158015611c0b573d6000803e3d6000fd5b50505050505050505050565b6000600660008473ffffffffffffffffffffffffffffffffffffffff1673ffffffffffffffffffffffffffffffffffffffff16815260200190815260200160002060008373ffffffffffffffffffffffffffffffffffffffff1673ffffffffffffffffffffffffffffffffffffffff16815260200190815260200160002060009054906101000a900460ff16905092915050565b611cb3611f27565b73ffffffffffffffffffffffffffffffffffffffff16611cd161132c565b73ffffffffffffffffffffffffffffffffffffffff1614611d27576040517f08c379a0000000000000000000000000000000000000000000000000000000008152600401611d1e90613fa5565b60405180910390fd5b8181600960008661ffff1661ffff1681526020019081526020016000209190611d51929190612d13565b50505050565b565b611d61611f27565b73ffffffffffffffffffffffffffffffffffffffff16611d7f61132c565b73ffffffffffffffffffffffffffffffffffffffff1614611dd5576040517f08c379a0000000000000000000000000000000000000000000000000000000008152600401611dcc90613fa5565b60405180910390fd5b600073ffffffffffffffffffffffffffffffffffffffff168173ffffffffffffffffffffffffffffffffffffffff161415611e45576040517f08c379a0000000000000000000000000000000000000000000000000000000008152600401611e3c90613dc5565b60405180910390fd5b611e4e8161236d565b50565b60007f01ffc9a7000000000000000000000000000000000000000000000000000000007bffffffffffffffffffffffffffffffffffffffffffffffffffffffff1916827bffffffffffffffffffffffffffffffffffffffffffffffffffffffff1916149050919050565b60008073ffffffffffffffffffffffffffffffffffffffff166003600084815260200190815260200160002060009054906101000a900473ffffffffffffffffffffffffffffffffffffffff1673ffffffffffffffffffffffffffffffffffffffff1614159050919050565b600033905090565b816005600083815260200190815260200160002060006101000a81548173ffffffffffffffffffffffffffffffffffffffff021916908373ffffffffffffffffffffffffffffffffffffffff160217905550808273ffffffffffffffffffffffffffffffffffffffff16611fa283610fad565b73ffffffffffffffffffffffffffffffffffffffff167f8c5be1e5ebec7d5bd14f71427d1e84f3dd0314c0f7b2291e5b200ac8c7c3b92560405160405180910390a45050565b60008082806020019051810190611fff9190612feb565b9150915061200d828261234f565b505050505050565b600061202082611ebb565b61205f576040517f08c379a000000000000000000000000000000000000000000000000000000000815260040161205690613ea5565b60405180910390fd5b600061206a83610fad565b90508073ffffffffffffffffffffffffffffffffffffffff168473ffffffffffffffffffffffffffffffffffffffff1614806120d957508373ffffffffffffffffffffffffffffffffffffffff166120c184610b26565b73ffffffffffffffffffffffffffffffffffffffff16145b806120ea57506120e98185611c17565b5b91505092915050565b8273ffffffffffffffffffffffffffffffffffffffff1661211382610fad565b73ffffffffffffffffffffffffffffffffffffffff1614612169576040517f08c379a000000000000000000000000000000000000000000000000000000000815260040161216090613fe5565b60405180910390fd5b600073ffffffffffffffffffffffffffffffffffffffff168273ffffffffffffffffffffffffffffffffffffffff1614156121d9576040517f08c379a00000000000000000000000000000000000000000000000000000000081526004016121d090613de5565b60405180910390fd5b6121e48383836128fe565b6121ef600082611f2f565b6001600460008573ffffffffffffffffffffffffffffffffffffffff1673ffffffffffffffffffffffffffffffffffffffff168152602001908152602001600020600082825461223f91906143f9565b925050819055506001600460008473ffffffffffffffffffffffffffffffffffffffff1673ffffffffffffffffffffffffffffffffffffffff16815260200190815260200160002060008282546122969190614372565b92505081905550816003600083815260200190815260200160002060006101000a81548173ffffffffffffffffffffffffffffffffffffffff021916908373ffffffffffffffffffffffffffffffffffffffff160217905550808273ffffffffffffffffffffffffffffffffffffffff168473ffffffffffffffffffffffffffffffffffffffff167fddf252ad1be2c89b69c2b068fc378daa952ba7f163c4a11628f55a4df523b3ef60405160405180910390a4505050565b612369828260405180602001604052806000815250612903565b5050565b60008060009054906101000a900473ffffffffffffffffffffffffffffffffffffffff169050816000806101000a81548173ffffffffffffffffffffffffffffffffffffffff021916908373ffffffffffffffffffffffffffffffffffffffff1602179055508173ffffffffffffffffffffffffffffffffffffffff168173ffffffffffffffffffffffffffffffffffffffff167f8be0079c531659141344cd1fd0a4f28419497f9722a3daafe3b4186f6b6457e060405160405180910390a35050565b8173ffffffffffffffffffffffffffffffffffffffff168373ffffffffffffffffffffffffffffffffffffffff1614156124a0576040517f08c379a000000000000000000000000000000000000000000000000000000000815260040161249790613e05565b60405180910390fd5b80600660008573ffffffffffffffffffffffffffffffffffffffff1673ffffffffffffffffffffffffffffffffffffffff16815260200190815260200160002060008473ffffffffffffffffffffffffffffffffffffffff1673ffffffffffffffffffffffffffffffffffffffff16815260200190815260200160002060006101000a81548160ff0219169083151502179055508173ffffffffffffffffffffffffffffffffffffffff168373ffffffffffffffffffffffffffffffffffffffff167f17307eab39ab6107e8899845ad3d59bd9653f200f220920489ca2b5937696c31836040516125919190613d26565b60405180910390a3505050565b6125a98484846120f3565b6125b58484848461295e565b6125f4576040517f08c379a00000000000000000000000000000000000000000000000000000000081526004016125eb90613da5565b60405180910390fd5b50505050565b6060600b80546126099061452e565b80601f01602080910402602001604051908101604052809291908181526020018280546126359061452e565b80156126825780601f1061265757610100808354040283529160200191612682565b820191906000526020600020905b81548152906001019060200180831161266557829003601f168201915b5050505050905090565b606060008214156126d4576040518060400160405280600181526020017f300000000000000000000000000000000000000000000000000000000000000081525090506127e8565b600082905060005b600082146127065780806126ef90614591565b915050600a826126ff91906143c8565b91506126dc565b60008167ffffffffffffffff811115612722576127216146e3565b5b6040519080825280601f01601f1916602001820160405280156127545781602001600182028036833780820191505090505b5090505b600085146127e15760018261276d91906143f9565b9150600a8561277c91906145f6565b60306127889190614372565b60f81b81838151811061279e5761279d6146b4565b5b60200101907effffffffffffffffffffffffffffffffffffffffffffffffffffffffffffff1916908160001a905350600a856127da91906143c8565b9450612758565b8093505050505b919050565b60006127f882610fad565b9050612806816000846128fe565b612811600083611f2f565b6001600460008373ffffffffffffffffffffffffffffffffffffffff1673ffffffffffffffffffffffffffffffffffffffff168152602001908152602001600020600082825461286191906143f9565b925050819055506003600083815260200190815260200160002060006101000a81549073ffffffffffffffffffffffffffffffffffffffff021916905581600073ffffffffffffffffffffffffffffffffffffffff168273ffffffffffffffffffffffffffffffffffffffff167fddf252ad1be2c89b69c2b068fc378daa952ba7f163c4a11628f55a4df523b3ef60405160405180910390a45050565b505050565b61290d8383612af5565b61291a600084848461295e565b612959576040517f08c379a000000000000000000000000000000000000000000000000000000000815260040161295090613da5565b60405180910390fd5b505050565b600061297f8473ffffffffffffffffffffffffffffffffffffffff16612c7a565b15612ae8578373ffffffffffffffffffffffffffffffffffffffff1663150b7a026129a8611f27565b8786866040518563ffffffff1660e01b81526004016129ca9493929190613cb1565b602060405180830381600087803b1580156129e457600080fd5b505af1925050508015612a1557506040513d601f19601f82011682018060405250810190612a1291906131ee565b60015b612a98573d8060008114612a45576040519150601f19603f3d011682016040523d82523d6000602084013e612a4a565b606091505b50600081511415612a90576040517f08c379a0000000000000000000000000000000000000000000000000000000008152600401612a8790613da5565b60405180910390fd5b805181602001fd5b63150b7a0260e01b7bffffffffffffffffffffffffffffffffffffffffffffffffffffffff1916817bffffffffffffffffffffffffffffffffffffffffffffffffffffffff191614915050612aed565b600190505b949350505050565b600073ffffffffffffffffffffffffffffffffffffffff168273ffffffffffffffffffffffffffffffffffffffff161415612b65576040517f08c379a0000000000000000000000000000000000000000000000000000000008152600401612b5c90613f65565b60405180910390fd5b612b71600083836128fe565b6001600460008473ffffffffffffffffffffffffffffffffffffffff1673ffffffffffffffffffffffffffffffffffffffff1681526020019081526020016000206000828254612bc19190614372565b92505081905550816003600083815260200190815260200160002060006101000a81548173ffffffffffffffffffffffffffffffffffffffff021916908373ffffffffffffffffffffffffffffffffffffffff160217905550808273ffffffffffffffffffffffffffffffffffffffff16600073ffffffffffffffffffffffffffffffffffffffff167fddf252ad1be2c89b69c2b068fc378daa952ba7f163c4a11628f55a4df523b3ef60405160405180910390a45050565b600080823b905060008111915050919050565b828054612c999061452e565b90600052602060002090601f016020900481019282612cbb5760008555612d02565b82601f10612cd457805160ff1916838001178555612d02565b82800160010185558215612d02579182015b82811115612d01578251825591602001919060010190612ce6565b5b509050612d0f9190612d99565b5090565b828054612d1f9061452e565b90600052602060002090601f016020900481019282612d415760008555612d88565b82601f10612d5a57803560ff1916838001178555612d88565b82800160010185558215612d88579182015b82811115612d87578235825591602001919060010190612d6c565b5b509050612d959190612d99565b5090565b5b80821115612db2576000816000905550600101612d9a565b5090565b6000612dc9612dc4846142ad565b614288565b905082815260208101848484011115612de557612de4614721565b5b612df08482856144ec565b509392505050565b6000612e0b612e06846142de565b614288565b905082815260208101848484011115612e2757612e26614721565b5b612e328482856144ec565b509392505050565b600081359050612e4981614e99565b92915050565b600081519050612e5e81614eb0565b92915050565b600081359050612e7381614ec7565b92915050565b600081359050612e8881614ede565b92915050565b600081519050612e9d81614ede565b92915050565b60008083601f840112612eb957612eb8614717565b5b8235905067ffffffffffffffff811115612ed657612ed5614712565b5b602083019150836001820283011115612ef257612ef161471c565b5b9250929050565b600082601f830112612f0e57612f0d614717565b5b8135612f1e848260208601612db6565b91505092915050565b600082601f830112612f3c57612f3b614717565b5b8135612f4c848260208601612df8565b91505092915050565b600081359050612f6481614ef5565b92915050565b600081359050612f7981614f0c565b92915050565b600081519050612f8e81614f0c565b92915050565b600081359050612fa381614f23565b92915050565b600081359050612fb881614f3a565b92915050565b600060208284031215612fd457612fd361472b565b5b6000612fe284828501612e3a565b91505092915050565b600080604083850312156130025761300161472b565b5b600061301085828601612e4f565b925050602061302185828601612f7f565b9150509250929050565b600080604083850312156130425761304161472b565b5b600061305085828601612e3a565b925050602061306185828601612e3a565b9150509250929050565b6000806000606084860312156130845761308361472b565b5b600061309286828701612e3a565b93505060206130a386828701612e3a565b92505060406130b486828701612f6a565b9150509250925092565b600080600080608085870312156130d8576130d761472b565b5b60006130e687828801612e3a565b94505060206130f787828801612e3a565b935050604061310887828801612f6a565b925050606085013567ffffffffffffffff81111561312957613128614726565b5b61313587828801612ef9565b91505092959194509250565b600080604083850312156131585761315761472b565b5b600061316685828601612e3a565b925050602061317785828601612e64565b9150509250929050565b600080604083850312156131985761319761472b565b5b60006131a685828601612e3a565b92505060206131b785828601612f6a565b9150509250929050565b6000602082840312156131d7576131d661472b565b5b60006131e584828501612e79565b91505092915050565b6000602082840312156132045761320361472b565b5b600061321284828501612e8e565b91505092915050565b6000602082840312156132315761323061472b565b5b600082013567ffffffffffffffff81111561324f5761324e614726565b5b61325b84828501612f27565b91505092915050565b60006020828403121561327a5761327961472b565b5b600061328884828501612f55565b91505092915050565b6000806000604084860312156132aa576132a961472b565b5b60006132b886828701612f55565b935050602084013567ffffffffffffffff8111156132d9576132d8614726565b5b6132e586828701612ea3565b92509250509250925092565b60008060006060848603121561330a5761330961472b565b5b600061331886828701612f55565b935050602084013567ffffffffffffffff81111561333957613338614726565b5b61334586828701612ef9565b925050604061335686828701612f6a565b9150509250925092565b60008060008060006080868803121561337c5761337b61472b565b5b600061338a88828901612f55565b955050602086013567ffffffffffffffff8111156133ab576133aa614726565b5b6133b788828901612ef9565b94505060406133c888828901612f94565b935050606086013567ffffffffffffffff8111156133e9576133e8614726565b5b6133f588828901612ea3565b92509250509295509295909350565b6000806000806080858703121561341e5761341d61472b565b5b600061342c87828801612f55565b945050602085013567ffffffffffffffff81111561344d5761344c614726565b5b61345987828801612ef9565b935050604061346a87828801612f94565b925050606085013567ffffffffffffffff81111561348b5761348a614726565b5b61349787828801612ef9565b91505092959194509250565b600080604083850312156134ba576134b961472b565b5b60006134c885828601612f55565b92505060206134d985828601612f6a565b9150509250929050565b6000602082840312156134f9576134f861472b565b5b600061350784828501612f6a565b91505092915050565b600080604083850312156135275761352661472b565b5b600061353585828601612f7f565b925050602061354685828601612f7f565b9150509250929050565b6000602082840312156135665761356561472b565b5b600061357484828501612fa9565b91505092915050565b6135868161443f565b82525050565b6135958161442d565b82525050565b6135a481614451565b82525050565b6135b38161445d565b82525050565b60006135c5838561433a565b93506135d28385846144ec565b6135db83614730565b840190509392505050565b60006135f2838561434b565b93506135ff8385846144ec565b82840190509392505050565b600061361682614324565b613620818561433a565b93506136308185602086016144fb565b61363981614730565b840191505092915050565b600061364f82614324565b613659818561434b565b93506136698185602086016144fb565b80840191505092915050565b600081546136828161452e565b61368c818661433a565b945060018216600081146136a757600181146136b9576136ec565b60ff19831686526020860193506136ec565b6136c28561430f565b60005b838110156136e4578154818901526001820191506020810190506136c5565b808801955050505b50505092915050565b600081546137028161452e565b61370c818661434b565b9450600182166000811461372757600181146137385761376b565b60ff1983168652818601935061376b565b6137418561430f565b60005b8381101561376357815481890152600182019150602081019050613744565b838801955050505b50505092915050565b600061377f8261432f565b6137898185614356565b93506137998185602086016144fb565b6137a281614730565b840191505092915050565b60006137b88261432f565b6137c28185614367565b93506137d28185602086016144fb565b80840191505092915050565b60006137eb602083614356565b91506137f68261474e565b602082019050919050565b600061380e603283614356565b915061381982614777565b604082019050919050565b6000613831602683614356565b915061383c826147c6565b604082019050919050565b6000613854602483614356565b915061385f82614815565b604082019050919050565b6000613877601983614356565b915061388282614864565b602082019050919050565b600061389a602e83614356565b91506138a58261488d565b604082019050919050565b60006138bd601a83614356565b91506138c8826148dc565b602082019050919050565b60006138e0604b83614356565b91506138eb82614905565b606082019050919050565b6000613903602283614356565b915061390e8261497a565b604082019050919050565b6000613926602c83614356565b9150613931826149c9565b604082019050919050565b6000613949603883614356565b915061395482614a18565b604082019050919050565b600061396c602a83614356565b915061397782614a67565b604082019050919050565b600061398f602983614356565b915061399a82614ab6565b604082019050919050565b60006139b2602b83614356565b91506139bd82614b05565b604082019050919050565b60006139d5602283614356565b91506139e082614b54565b604082019050919050565b60006139f8602083614356565b9150613a0382614ba3565b602082019050919050565b6000613a1b602c83614356565b9150613a2682614bcc565b604082019050919050565b6000613a3e602083614356565b9150613a4982614c1b565b602082019050919050565b6000613a61603483614356565b9150613a6c82614c44565b604082019050919050565b6000613a84602983614356565b9150613a8f82614c93565b604082019050919050565b6000613aa7603083614356565b9150613ab282614ce2565b604082019050919050565b6000613aca602f83614356565b9150613ad582614d31565b604082019050919050565b6000613aed602183614356565b9150613af882614d80565b604082019050919050565b6000613b10601b83614356565b9150613b1b82614dcf565b602082019050919050565b6000613b3360008361434b565b9150613b3e82614df8565b600082019050919050565b6000613b56603183614356565b9150613b6182614dfb565b604082019050919050565b6000613b79602683614356565b9150613b8482614e4a565b604082019050919050565b613b9881614493565b82525050565b613baf613baa82614493565b6145da565b82525050565b613bbe816144c1565b82525050565b613bd5613bd0826144c1565b6145ec565b82525050565b613be4816144cb565b82525050565b6000613bf78284866135e6565b91508190509392505050565b6000613c0f8284613644565b915081905092915050565b6000613c2682846136f5565b915081905092915050565b6000613c3d82856137ad565b9150613c4982846137ad565b91508190509392505050565b6000613c6082613b26565b9150819050919050565b6000613c768285613b9e565b600282019150613c868284613bc4565b6020820191508190509392505050565b6000602082019050613cab600083018461358c565b92915050565b6000608082019050613cc6600083018761358c565b613cd3602083018661358c565b613ce06040830185613bb5565b8181036060830152613cf2818461360b565b905095945050505050565b6000604082019050613d12600083018561358c565b613d1f6020830184613bb5565b9392505050565b6000602082019050613d3b600083018461359b565b92915050565b60006020820190508181036000830152613d5b818461360b565b905092915050565b60006020820190508181036000830152613d7d8184613774565b905092915050565b60006020820190508181036000830152613d9e816137de565b9050919050565b60006020820190508181036000830152613dbe81613801565b9050919050565b60006020820190508181036000830152613dde81613824565b9050919050565b60006020820190508181036000830152613dfe81613847565b9050919050565b60006020820190508181036000830152613e1e8161386a565b9050919050565b60006020820190508181036000830152613e3e8161388d565b9050919050565b60006020820190508181036000830152613e5e816138b0565b9050919050565b60006020820190508181036000830152613e7e816138d3565b9050919050565b60006020820190508181036000830152613e9e816138f6565b9050919050565b60006020820190508181036000830152613ebe81613919565b9050919050565b60006020820190508181036000830152613ede8161393c565b9050919050565b60006020820190508181036000830152613efe8161395f565b9050919050565b60006020820190508181036000830152613f1e81613982565b9050919050565b60006020820190508181036000830152613f3e816139a5565b9050919050565b60006020820190508181036000830152613f5e816139c8565b9050919050565b60006020820190508181036000830152613f7e816139eb565b9050919050565b60006020820190508181036000830152613f9e81613a0e565b9050919050565b60006020820190508181036000830152613fbe81613a31565b9050919050565b60006020820190508181036000830152613fde81613a54565b9050919050565b60006020820190508181036000830152613ffe81613a77565b9050919050565b6000602082019050818103600083015261401e81613a9a565b9050919050565b6000602082019050818103600083015261403e81613abd565b9050919050565b6000602082019050818103600083015261405e81613ae0565b9050919050565b6000602082019050818103600083015261407e81613b03565b9050919050565b6000602082019050818103600083015261409e81613b49565b9050919050565b600060208201905081810360008301526140be81613b6c565b9050919050565b600060a0820190506140da6000830188613b8f565b6140e7602083018761358c565b81810360408301526140f9818661360b565b9050614108606083018561359b565b818103608083015261411a818461360b565b90509695505050505050565b600060808201905061413b6000830188613b8f565b818103602083015261414d818761360b565b905061415c6040830186613bdb565b818103606083015261416f8184866135b9565b90509695505050505050565b60006080820190506141906000830187613b8f565b81810360208301526141a2818661360b565b90506141b16040830185613bdb565b81810360608301526141c3818461360b565b905095945050505050565b600060c0820190506141e36000830189613b8f565b81810360208301526141f58188613675565b90508181036040830152614209818761360b565b9050614218606083018661357d565b614225608083018561358c565b81810360a0830152614237818461360b565b9050979650505050505050565b60006020820190506142596000830184613bb5565b92915050565b60006040820190506142746000830185613bb5565b61428160208301846135aa565b9392505050565b60006142926142a3565b905061429e8282614560565b919050565b6000604051905090565b600067ffffffffffffffff8211156142c8576142c76146e3565b5b6142d182614730565b9050602081019050919050565b600067ffffffffffffffff8211156142f9576142f86146e3565b5b61430282614730565b9050602081019050919050565b60008190508160005260206000209050919050565b600081519050919050565b600081519050919050565b600082825260208201905092915050565b600081905092915050565b600082825260208201905092915050565b600081905092915050565b600061437d826144c1565b9150614388836144c1565b9250827fffffffffffffffffffffffffffffffffffffffffffffffffffffffffffffffff038211156143bd576143bc614627565b5b828201905092915050565b60006143d3826144c1565b91506143de836144c1565b9250826143ee576143ed614656565b5b828204905092915050565b6000614404826144c1565b915061440f836144c1565b92508282101561442257614421614627565b5b828203905092915050565b6000614438826144a1565b9050919050565b600061444a826144a1565b9050919050565b60008115159050919050565b6000819050919050565b60007fffffffff0000000000000000000000000000000000000000000000000000000082169050919050565b600061ffff82169050919050565b600073ffffffffffffffffffffffffffffffffffffffff82169050919050565b6000819050919050565b600067ffffffffffffffff82169050919050565b600060ff82169050919050565b82818337600083830152505050565b60005b838110156145195780820151818401526020810190506144fe565b83811115614528576000848401525b50505050565b6000600282049050600182168061454657607f821691505b6020821081141561455a57614559614685565b5b50919050565b61456982614730565b810181811067ffffffffffffffff82111715614588576145876146e3565b5b80604052505050565b600061459c826144c1565b91507fffffffffffffffffffffffffffffffffffffffffffffffffffffffffffffffff8214156145cf576145ce614627565b5b600182019050919050565b60006145e582614741565b9050919050565b6000819050919050565b6000614601826144c1565b915061460c836144c1565b92508261461c5761461b614656565b5b828206905092915050565b7f4e487b7100000000000000000000000000000000000000000000000000000000600052601160045260246000fd5b7f4e487b7100000000000000000000000000000000000000000000000000000000600052601260045260246000fd5b7f4e487b7100000000000000000000000000000000000000000000000000000000600052602260045260246000fd5b7f4e487b7100000000000000000000000000000000000000000000000000000000600052603260045260246000fd5b7f4e487b7100000000000000000000000000000000000000000000000000000000600052604160045260246000fd5b600080fd5b600080fd5b600080fd5b600080fd5b600080fd5b600080fd5b6000601f19601f8301169050919050565b60008160f01b9050919050565b7f4361766561743a204661696c656420746f207769746864726177204574686572600082015250565b7f4552433732313a207472616e7366657220746f206e6f6e20455243373231526560008201527f63656976657220696d706c656d656e7465720000000000000000000000000000602082015250565b7f4f776e61626c653a206e6577206f776e657220697320746865207a65726f206160008201527f6464726573730000000000000000000000000000000000000000000000000000602082015250565b7f4552433732313a207472616e7366657220746f20746865207a65726f2061646460008201527f7265737300000000000000000000000000000000000000000000000000000000602082015250565b7f4552433732313a20617070726f766520746f2063616c6c657200000000000000600082015250565b7f5468697320636861696e2069732063757272656e746c7920756e617661696c6160008201527f626c6520666f722074726176656c000000000000000000000000000000000000602082015250565b7f4c617965725a65726f3a20696e76616c6964207061796c6f6164000000000000600082015250565b7f4361766561743a206d73672e76616c7565206e6f7420656e6f75676820746f2060008201527f636f766572206d6573736167654665652e2053656e642067617320666f72206d60208201527f6573736167652066656573000000000000000000000000000000000000000000604082015250565b7f596f75206d757374206f776e2074686520746f6b656e20746f2074726176657260008201527f7365000000000000000000000000000000000000000000000000000000000000602082015250565b7f4552433732313a206f70657261746f7220717565727920666f72206e6f6e657860008201527f697374656e7420746f6b656e0000000000000000000000000000000000000000602082015250565b7f4552433732313a20617070726f76652063616c6c6572206973206e6f74206f7760008201527f6e6572206e6f7220617070726f76656420666f7220616c6c0000000000000000602082015250565b7f4552433732313a2062616c616e636520717565727920666f7220746865207a6560008201527f726f206164647265737300000000000000000000000000000000000000000000602082015250565b7f4552433732313a206f776e657220717565727920666f72206e6f6e657869737460008201527f656e7420746f6b656e0000000000000000000000000000000000000000000000602082015250565b7f4e6f6e626c6f636b696e6752656365697665723a2063616c6c6572206d75737460008201527f206265204272696467652e000000000000000000000000000000000000000000602082015250565b7f4361766561743a204d61782032204e46547320706572207472616e736163746960008201527f6f6e000000000000000000000000000000000000000000000000000000000000602082015250565b7f4552433732313a206d696e7420746f20746865207a65726f2061646472657373600082015250565b7f4552433732313a20617070726f76656420717565727920666f72206e6f6e657860008201527f697374656e7420746f6b656e0000000000000000000000000000000000000000602082015250565b7f4f776e61626c653a2063616c6c6572206973206e6f7420746865206f776e6572600082015250565b7f4e6f6e626c6f636b696e6752656365697665723a20696e76616c696420736f7560008201527f7263652073656e64696e6720636f6e7472616374000000000000000000000000602082015250565b7f4552433732313a207472616e73666572206f6620746f6b656e2074686174206960008201527f73206e6f74206f776e0000000000000000000000000000000000000000000000602082015250565b7f5468697320636861696e2069732063757272656e746c7920756e617661696c6160008201527f626c6520666f72207472616e7366657200000000000000000000000000000000602082015250565b7f4552433732314d657461646174613a2055524920717565727920666f72206e6f60008201527f6e6578697374656e7420746f6b656e0000000000000000000000000000000000602082015250565b7f4552433732313a20617070726f76616c20746f2063757272656e74206f776e6560008201527f7200000000000000000000000000000000000000000000000000000000000000602082015250565b7f4361766561743a204d696e74206578636565647320737570706c790000000000600082015250565b50565b7f4552433732313a207472616e736665722063616c6c6572206973206e6f74206f60008201527f776e6572206e6f7220617070726f766564000000000000000000000000000000602082015250565b7f4e6f6e626c6f636b696e6752656365697665723a206e6f2073746f726564206d60008201527f6573736167650000000000000000000000000000000000000000000000000000602082015250565b614ea28161442d565b8114614ead57600080fd5b50565b614eb98161443f565b8114614ec457600080fd5b50565b614ed081614451565b8114614edb57600080fd5b50565b614ee781614467565b8114614ef257600080fd5b50565b614efe81614493565b8114614f0957600080fd5b50565b614f15816144c1565b8114614f2057600080fd5b50565b614f2c816144cb565b8114614f3757600080fd5b50565b614f43816144df565b8114614f4e57600080fd5b5056fea2646970667358221220cb4c7006a481b37556b3976ae091c0b1b47c9aee9dcfa501e644623e292c3e9964736f6c63430008070033",
  "linkReferences": {},
  "deployedLinkReferences": {}
}